:0C00000008308A00E728000020280800D3
:100040000A108A100A11273E03188A0A8200003417
:100050005E34BC34E23461343F34DD348334C23442
:100060009C347E342034A334FD341F3441349D3419
:10007000C33421347F34FC34A23440341E345F3422
:100080000134E334BD343E3460348234DC34233410
:100090007D349F34C13442341C34FE34A034E13406
:1000A000BF345D3403348034DE343C346234BE34D7
:1000B000E03402345C34DF34813463343D347C34E6
:1000C0002234C0349E341D344334A134FF344634CA
:1000D0001834FA34A434273479349B34C534843446
:1000E000DA3438346634E534BB3459340734DB341D
:1000F000853467343934BA34E43406345834193426
:100100004734A534FB3478342634C4349A34653407
:100110003B34D934873404345A34B834E634A73401
:10012000F9341B344534C63498347A342434F834E2
:10013000A63444341A349934C73425347B343A34E1
:1001400064348634D8345B340534E734B9348C34C1
:10015000D23430346E34ED34B33451340F344E3441
:100160001034F234AC342F3471349334CD34113430
:100170004F34AD34F33470342E34CC349234D33421
:100180008D346F343134B234EC340E345034AF34F7
:10019000F13413344D34CE34903472342C346D3405
:1001A0003334D1348F340C345234B034EE343234EE
:1001B0006C348E34D03453340D34EF34B134F034E5
:1001C000AE344C3412349134CF342D347334CA34B9
:1001D000943476342834AB34F53417344934083445
:1001E0005634B434EA3469343734D5348B34573424
:1001F0000934EB34B534363468348A34D434953425
:10020000CB3429347734F434AA3448341634E934FE
:10021000B73455340B348834D63434346A342B3400
:1002200075349734C9344A341434F634A8347434E9
:100230002A34C834963415344B34A934F734B634E0
:10024000E8340A345434D73489346B3435340D05EA
:100250000D0523104D39E135EF366539A0127310C5
:10026000A82129103218B01BA02A532A8A060000A0
:100270002310E337ED366137E439BA060A0023105C
:10028000E82FE5307416A031DF376C322C10EF2FD9
:10029000F0326E162036DF37E3352C10F82F6F382A
:1002A00065372C100001E92F6E336F162039DF32CD
:1002B000F032613A2C10E12F753A6F16A039DF3910
:1002C000693767366516A03A5F38E430F4320D05B9
:1002D000000123103C3B65393E10BC39E538F5324E
:1002E000EE31651F201E6937F334E432DB18AF1896
:1002F0003018A0215D1F201EF335F92DB1173118DC
:100300003010C32E3E10BC39EB3CDB18AF18301850
:10031000A0215D1F2000BC306D31E9326E3ADB1840
:10032000AF183018A0215D1F201EE832613A6937EE
:10033000E72DF32E3E103C32EF36E52DF32E3E1026
:10034000BC31E832E335BE068A060A005330840029
:10035000831300080319B9290230F800F701F70BDD
:10036000AF29F80BAE299730F700F70BB529800BB2
:10037000AC29080083165308D5005208D40055084C
:10038000FA005408840083137A188317800803192D
:10039000CD29D40A0319D50ABF2952085402F700FF
:1003A0005508FA005308031C530FFA027708F800A7
:1003B00083120800831603178C170C14000000002A
:1003C0000318112A83120C087F3983160313D300F4
:1003D000831203170D0883160313D4008312031727
:1003E0000F0883160313D500530883120C1EF62939
:1003F000990083165408831203178D008316031384
:100400005508831203178F0083168C170C140000F5
:1004100000000313D20B0D2A0F2A0317112A3C2ABE
:10042000031783120C0D0E0D7F3983160313D300AF
:10043000831203170D0883160313D40083120317C6
:100440000F0883160313D500530883120C1E262AA7
:10045000990083165408831203178D008316031323
:100460005508831203178F008D0A03198F0A031092
:1004700083160313D20BDB298312080080080319AB
:100480005B2A8316D3010408D2005310831B531434
:10049000000883120C1E4A2A990083165208840011
:1004A000831353188317840A031D592A8312850A5C
:1004B000831683123E2A0800831603178C170C1428
:1004C0000000000083120C087F390319B62A831636
:1004D0000313D200831203170D0883160313D300EE
:1004E000831203170F0883160313D40052088312D4
:1004F0000C1E782A990083165308831203178D0067
:10050000831603135408831203178F0083168C1766
:100510000C140000000083120C0D0E0D7F3903191E
:10052000B62A83160313D200831203170D0883160D
:100530000313D300831203170F0883160313D40089
:10054000520883120C1EA22A9900831653088312A4
:1005500003178D00831603135408831203178F00AB
:100560008D0A03198F0A03135C2A0317031308006B
:1005700024308316A0004930A1006430A2003A3034
:10058000A3002030A4006930A5007230A6006D30B1
:10059000A7007230A8006130A9006B30AA00343087
:1005A000AB002E30AC006330AD002030AE003130F7
:1005B000AF003730B0003030B1003330B2002030FF
:1005C000B3003230B4003030B5003130B6003030D6
:1005D000B7002D30B8003130B9003230BA002D30BC
:1005E000BB003030BC003530BD002030BE003130A3
:1005F000BF003230C0003A30C1003430C200333066
:10060000C3003A30C4003130C5003530C6005A301E
:10061000C7002030C8006B30C9006130CA006B30A1
:10062000CB006C30CC002030CD002430CE00CF0188
:10063000D301A030D2008312BA2101307802A03E4B
:10064000840083130008243C031D322B8316D3013E
:10065000A030D2008312BA2101307802A03E84007B
:1006600083138001273003178D0001308F000310A2
:100670000F3083160313D2008312DA212230840054
:1006800083133E222F3003178D0001308F00031497
:100690000F3083160313D2008312DA2123300C1E8D
:1006A0004F2B9900A430840083133E220D300C1E82
:1006B000572B99000A300C1E5B2B990023300C1E1F
:1006C0005F2B99000D300C1E632B99000A300C1E15
:1006D000672B9900383003178D0001308F0003130A
:1006E0005C223F3003178D0001308F0003135C2222
:1006F000533003178D0001308F0003135C22233029
:100700000C1E802B99000D300C1E842B99000A3092
:100710000C1E882B9900693003178D0001308F0063
:1007200003135C228B3003178D0001308F000313FD
:100730005C226400080083168614061083120610DB
:100740000D30F700F70BA22B83168610831286104C
:100750000D30F700F70BAA2B831606140D30F700A7
:10076000F70BB02B861483120800831686140D3005
:10077000F700F70BB92B06140D30F700F70BBE2B63
:100780008610831286100D30F700F70BC52B8316E9
:100790000610831206100D30F700F70BCD2B080062
:1007A000E208031DD82B8316861083128610DB2BDC
:1007B000831686148312DC2BDD2BDE2B83160614A6
:1007C0001A30F700F70BE22B000006108312061018
:1007D000A7080319F12B8316061210308312860620
:1007E000F52B83160612831206164230F700F70B1C
:1007F000F72B0000A7080319032C831606121030EC
:1008000083128606072C831606128312061608002A
:100810008316861406141A30F700F70B0D2C00000F
:1008200086148312861C172C0130E200182CE2017A
:100830008316061083120610A7080319252C8316A9
:100840000612103083128606292C83160612831294
:1008500006164230F700F70B2B2C0000A7080319EF
:10086000372C831606121030831286063B2C831613
:100870000612831206166208F80008000830DF002E
:10088000DF080319502CDE1F482C0130E100492CF1
:10089000E1016108E200D0230310DE0DDF03402CEC
:1008A00008247808E0006008F80008000830DF003D
:1008B000DF080319682C0824F8080319632C0310B7
:1008C000DE0D5E14662C0310DE0D5E10DF03582C67
:1008D0005D08E200D0235E08F80008000310D20D86
:1008E0009B23B5235208DE003E245308DD00DE00C2
:1008F0003E24B5235208DE003E24DD01562478084C
:10090000D600DD0156247808D5005508DC005608CD
:10091000DB000130DD0056247808DA009B23520802
:10092000D9005308D8005208D700D401DE01543052
:10093000DD002F30E500E401E301E201E1010130D7
:10094000E0000730DF002F30E500E6010530E7006A
:10095000E80167085D07840083135E1883170008A9
:10096000EA008030F7006808F8000319BB2C031078
:10097000F70CF80BB72C77086A05031DD92CE7088C
:100980000319D92CE5036808063C031CC92CE80AA6
:10099000CB2CE801E703A7080319D42C8316061211
:1009A000103083128606D82C831606128312061680
:1009B000A92C08306502E600E6080319112D053060
:1009C000E700670FE42C022D013067025F3E8400D0
:1009D0008313801FF12CE7080319F12C0130E90083
:1009E000F22CE9015F306707840083130310000DC8
:1009F00080005F3067078400831369080007800068
:100A0000E703E12CE603A70803190C2D8316061251
:100A1000103083128606102D8316061283120616D6
:100A2000DC2CE7016708053C031C342D67085D07D3
:100A3000F8005E08FA000318FA0A780884008313A5
:100A40007A1883170008EC005F306707840083136F
:100A500000086C06EC007808840083137A1883176A
:100A60006C088000E70A122D6508083C031C9B2CCB
:100A70005D08840083135E1883170008F800780867
:100A80005A020319452DDC01DB015B08F8005C0804
:100A9000F900080083168613861383128613A708AD
:100AA0000319582D831606121030831286065C2D0A
:100AB00083160612831206164230F700F70B5E2DDE
:100AC0000000A70803196A2D83160612103083123E
:100AD00086066E2D83160612831206164230F70024
:100AE000F70B702D0000A70803197C2D8316061242
:100AF000103083128606802D831606128312061686
:100B00004230F700F70B822D0000A70803198E2D45
:100B100083160612103083128606922D8316061253
:100B2000831206164230F700F70B942D0000A70839
:100B30000319A02D83160612103083128606A42DE9
:100B400083160612831206164230F700F70BA62D05
:100B50000000A7080319B22D831606121030831265
:100B60008606B62D8316061283120616831686177E
:100B70000330F700F70BBA2D8312861BC22D00300D
:100B8000F8001D2E2B30F700F70BC42DA708031912
:100B9000CF2D83160612103083128606D32D8316AE
:100BA0000612831206165210861F5214A708031944
:100BB000DF2D83160612103083128606E32D83166E
:100BC0000612831206164230F700F70BE52D0000DF
:100BD000A7080319F12D831606121030831286061A
:100BE000F52D83160612831206164230F700F70B16
:100BF000F72D0000A7080319032E831606121030E4
:100C000083128606072E83160612831206161330E9
:100C1000F700F70B092E0C2EA7080319152E8316C3
:100C20000612103083128606192E831606128312BE
:100C30000616003052180130F80008000130D300C9
:100C40005308083C031C7C2E0310D20C0030031800
:100C50000130D4005408D5008316861386138312FE
:100C600086130630F700F70B332E0000D508031962
:100C7000492E831686138613831286170630F700D3
:100C8000F70B402E0000861B482E0030F800742E13
:100C9000582E831686138613831286130630F700A8
:100CA000F70B502E0000861F582E0030F800742ECF
:100CB0002130F700F70B5A2E831686138613831202
:100CC0008617A70803196A2E83160612103083129E
:100CD00086066E2E83160612831206162130F70042
:100CE000F70B702E0130F800F808031D7A2E003043
:100CF000F8007E2ED30A202E0130F8000800D5011E
:100D0000D40155085302031CA12E031D8B2E52083B
:100D100054020318A12EA7080319942E8316061255
:100D2000103083128606982E83160612831206163A
:100D30004230F700F70B9A2E0000D40A0319D50AA7
:100D4000812E08000130D4005408083C031CDA2E20
:100D5000831686138613831286130930F700F70B68
:100D6000AF2E831686170330F700F70BB52E8312CC
:100D70005610861B56144230F700F70BBD2E0000AC
:100D8000A7080319C92E831606121030831286068F
:100D9000CD2E831606128312061600305618013027
:100DA000F800F808031DD62E0310D72E0314D50C17
:100DB000D40AA42E5508F8008A15382A5308550677
:100DC0008039D700D31FE92ED209D309D20A0319DB
:100DD000D30AD51FF02ED409D509D40A0319D50A90
:100DE0001030D600F701FA01D30CD20C031CFE2EF2
:100DF0005408F7070318FA0A5508FA07FA0CF70C13
:100E0000F90CF80CD60BF42ED71F0B2FF809F909A3
:100E1000F80A0319F90A8A157D2A550857068039F8
:100E2000D900D51F182FD409D509D40A0319D50A1A
:100E3000D71F1F2FD609D709D60A0319D70AF801D9
:100E4000F901F701FA015708031D292F5608031964
:100E5000432F1030D8000310D40DD50DF70DFA0D27
:100E600057087A02031D362F56087702031C3F2FBE
:100E70005608F702031CFA035708FA020314F80D88
:100E8000F90DD80B2B2FD91F4A2FF809F909F80AA9
:100E90000319F90A08002808840083132918831706
:100EA0005B088000840A8001A80A0319A90A0800C7
:100EB000800803196D2FD3010408D2005310831B3F
:100EC00053140008DB004B27520884008313531887
:100ED0008317840A0319850A582F8A15302BDA01E3
:100EE0000408D9005A10831B5A14530EF038D50049
:100EF000D507E23ED600323ED80053080F39D60758
:100F0000D607D807E93ED700D707D707520E0F39C3
:100F1000D707D807D70DD80DD809D80D52080F39E3
:100F2000D807D50D0730D4000A30D807D703031CE3
:100F3000952FD707D603031C992FD607D503031C7B
:100F40009D2FD507D403031CA12F54308400831395
:100F500007305905591384075830040203195917EB
:100F60000008F700031DBC2F591BBC2F591ACE2FA8
:100F7000D919BC2F2030BF2FD91559123030F7079F
:100F8000D3010408D2005310831B53147708DB00ED
:100F90004B2752088400831353188317840A591F60
:100FA000AC2F8A15612B5508F80154020318DB2F6A
:100FB0005408F700E72FF7010830D600D40DF70DDD
:100FC000550877020318F700F80DD60BDE2F08003E
:10100000DA010408D9005A10831B5A14D31F102880
:10101000D917591ED90AD209D309D20A0319D30AFA
:10102000530EF038D500D507E23ED600323ED80048
:1010300053080F39D607D607D807E93ED700D70798
:10104000D707520E0F39D707D807D70DD80DD809B3
:10105000D80D52080F39D807D50D0730D4000A3003
:10106000D807D703031C3028D707D603031C34281E
:10107000D607D503031C3828D507D403031C3C2806
:1010800054308400831307305905591384035905DC
:10109000031D5128591A840A591A51282030F70083
:1010A0006E28840758300402031959170008F70006
:1010B000031D6228591B6228591A7E28D9196228F3
:1010C00020306D28D91F6A282D30F700840359136A
:1010D000D9136E28D91559123030F707D3010408F7
:1010E000D2005310831B53147708DB008A114B275F
:1010F0008A1552088400831353188317840A591FD2
:101100005228080078085208D4006430D5008A11AB
:10111000D3278A157708D20078083030031D972826
:10112000D31CA028D319A028531A20309A28D311F1
:1011300053125314F8077808DB008A114B278A15DD
:101140005208D4000A30D5008A11D3278A157708AF
:10115000D20078083030031DB328D319B928531CA6
:10116000B928531A2030F8077808DB008A114B277A
:101170008A153030D2075208DB008A114B278A15B6
:101180000800D31BD5280F30F700520EF7050A30A0
:1011900077020318CE283030F707D0285308F70716
:1011A0007708DB008A114B278A150F30D2050A30E9
:1011B00052020318DD283030DF28D3135308D2073A
:1011C0005208DB008A114B278A158A15AA2C840144
:1011D00083131F308305723083168F000F0833305E
:1011E0009900A230980090308312980083161F1245
:1011F0009F121B0880399B0007309C008312A001BE
:10120000A1013430A2002E30A3003130A400A5018A
:10121000A801A901831606128312061683168611E9
:10122000831286110430D200FA30D3008A11A6212D
:101230008A15D20B14296400AB01AA01A601A701EB
:101240003B148A11B8228A15D2010630D3008A11C4
:101250006E248A157908AF007808AE00D2010730F5
:10126000D3008A116E248A157908AD007808AC0085
:101270008A114A258A15CC30D2008A111E268A1579
:101280004430D2008A111E268A150430D200FA306A
:10129000D3008A11A6218A15D20B472964005A303F
:1012A000BA003A08593C0318BA0AD3016430D20094
:1012B0008A117F268A153A08593C03187329A60813
:1012C000031DA603A708031DA703A60803196D297C
:1012D000831686118312861571298316861183124F
:1012E0008611BA0164008C1A77293B1C51296400CD
:1012F0006B30BC008C1E80298C1E7C291A08BC0017
:1013000061303C02E83E0318AC29183ED72C14305B
:10131000A600BB10AC29A601BB10AC291430A70055
:10132000BB10AC291430A700A600BB10AC29A70144
:10133000BB10AC29A708031DA0298A11B8228A1561
:10134000AC293B14BB10AC293B10BB10AC293B149F
:10135000BB14AC298A01002818121816AA0A03190E
:10136000AB0AD2010630D3008A116E248A1579089F
:10137000AF007808AE0003102E0DD2002F0DD30061
:10138000B3305202F7005308FA006A30031C6B3086
:10139000FA027708B0007A08B100D2010730D30012
:1013A0008A116E248A157908AD007808AC00031004
:1013B0002C0DD2002D0DD300B3305202F70053088C
:1013C000FA006A30031C6B30FA027708B2007A0820
:1013D000B300D2010830D3008A116E248A1579082F
:1013E000AD007808AC0003102C0DD2002D0DD300F9
:1013F000B3305202F7005308FA006A30031C6B3016
:10140000FA027708B4007A08B5008A114A258A15CD
:10141000CC30D2008A111E268A154430D2008A119F
:101420001E268A1564001730D3007030D2008A114E
:101430007F268A158A114A258A15CC30D2008A1156
:101440001E268A15BE30D2008A111E268A15C701B3
:101450004708083C031C422A3D304707F800FA01C0
:101460000318FA0A7808D2007A08D3008A11A22E4B
:101470008A15520884008313531883177808800054
:10148000C70A282A3D08B8003E08B900D3013D30FC
:10149000D2000830D400D501D601540856020318F2
:1014A000662A56085207F8005308FA000318FA0A89
:1014B0007808840083137A188317000855068A1168
:1014C00020208A15F800D500D60A4D2A5508F800C4
:1014D00078084502031D962A4408103C031D962AED
:1014E0003908B7003808B6003708D3003608D200EC
:1014F000D5010630D4008A11DE2E8A157908D30072
:101500007808D2003708D5003608D400D701043057
:10151000D6008A110D278A1578085207B60053089D
:10152000B70079080318790FB7079A2A9530B700E2
:101530004D30B600BB1C122BB11BA82A3108073C4A
:10154000031CAA2A031DA82A3008073C031CAA2A48
:101550001430A60034083202D2003308D300350814
:10156000031C350FD3025308FA005208D31FC12AB7
:101570005208003CF700FA015308031C530FFA020B
:101580007708D2007A08D300D31BCD2AD308031DD5
:10159000122B5208C73C031C122BB31FD22AB71FB1
:1015A000DE2AD42AB71B122B33083702031C122B56
:1015B000031DDE2A360832020318122B3708D50025
:1015C0003608D400D7010430D6008A110D278A15B9
:1015D0007908D3007808D2003208D2023308031CFD
:1015E000330FD3025308FA005208D31F002B5208BE
:1015F000003CF700FA015308031C530FFA02770866
:10160000D2007A08D300D31B122B5308003C0318D6
:10161000122BFF3A031D102B5208F43C0318122B17
:101620001430A700D101D3013230D2008A117F26B5
:101630008A1524300C1E1A2B9900D3013230D200A7
:101640008A117F268A15A9014830A8004D30DB0099
:101650008A114B278A152230840083138A11582F50
:101660008A152030DB008A114B278A15D0014830BB
:1016700050078400831380080319562BD30132309E
:10168000D2008A117F268A154830500784008313C0
:101690000008D20052080C1E4B2B99005008D00AAB
:1016A000483E840083130008D106372BA901483037
:1016B000A800103084002B08D3002A08D2008A1119
:1016C0006F2F8A152030DB008A114B278A15D00135
:1016D000483050078400831380080319872BD301F7
:1016E0003230D2008A117F268A1548305007840094
:1016F00083130008D20052080C1E7C2B990050085E
:10170000D00A483E840083130008D106682BA90143
:101710004830A800103084003108D3003008D200CF
:1017200000202030DB008A114B278A15D001483079
:1017300050078400831380080319B62BD30132307D
:10174000D2008A117F268A154830500784008313FF
:101750000008D20052080C1EAB2B99005008D00A8A
:10176000483E840083130008D106972BA901483016
:10177000A800103084003308D3003208D2000020C3
:101780002030DB008A114B278A15D00148305007E2
:101790008400831380080319E52BD3013230D20073
:1017A0008A117F268A154830500784008313000869
:1017B000D20052080C1EDA2B99005008D00A483E7D
:1017C000840083130008D106C62BA9014830A80065
:1017D000103084003508D3003408D20000202030B7
:1017E000DB008A114B278A15D0014830500784004E
:1017F000831380080319142CD3013230D2008A11CC
:101800007F268A1548305007840083130008D200D1
:1018100052080C1E092C99005008D00A483E84003A
:1018200083130008D106F52BA9014830A800103019
:1018300084003708D3003608D20000202030DB00B7
:101840008A114B278A15D001483050078400831332
:1018500080080319432CD3013230D2008A117F262D
:101860008A1548305007840083130008D2005208BC
:101870000C1E382C99005008D00A483E840083136F
:101880000008D106242CA9014830A8002608D2005F
:101890001B30D30082202030DB008A114B278A15B1
:1018A000D001483050078400831380080319702C3E
:1018B000D3013230D2008A117F268A154830500772
:1018C000840083130008D20052080C1E652C990076
:1018D0005008D00A483E840083130008D106512CDA
:1018E000A9014830A8002708D2001B30D30082206D
:1018F0002030DB008A114B278A15D0014830500771
:1019000084008313800803199D2CD3013230D20048
:101910008A117F268A1548305007840083130008F7
:10192000D20052080C1E922C99005008D00A483E52
:10193000840083130008D1067E2CA9014830A8003A
:101940002A30DB008A114B278A155108D200373024
:10195000D300C1280D30DB008A114B278A150A30CD
:10196000DB008A114B278A15D001483050078400CC
:10197000831380080319CE2CD3013230D2008A1190
:101980007F268A155008D00A483E84008313000839
:10199000D20052080C1ECA2C9900B52CD30132304B
:1019A000D2008A117F268A1564004F2963000A102D
:1019B0008A100A158207A729AC298B29AC29AC29E2
:1019C000AC29AC2987299A29AC29AC299729AC29BB
:1019D000AC298E29AC29AC29A129A429AC29AA2992
:0619E000AC29AC2992299C
:061A00008A010028080025
:04400E00143FFC3F20
:00000001FF
;PIC16F88
;CRC=1F33  CREATED="05-12-10 20:17"
