:0C00000008308A000028000020280800BA
:100040000D050D0523104D39E135EF366539A01248
:100050007310A82129103218B118A02A532A0D05AF
:10006000000055308400831300080319442802302F
:10007000F800F701F70B3A28F80B39289730F7000A
:10008000F70B4028800B3728080083165308D5004B
:100090005208D4005508FA005408840083137A18D3
:1000A0008317800803195828D40A0319D50A4A2847
:1000B00052085402F7005508FA005308031C530F66
:1000C000FA027708F80083120800831603178C17CA
:1000D0000C140000000003189C2883120C087F39C0
:1000E00083160313D300831203170D08831603131B
:1000F000D400831203170F0883160313D500530887
:1001000083120C1E8128990083165408831203174A
:100110008D00831603135508831203178F0083166F
:100120008C170C14000000000313D20B98289A2897
:1001300003179C28C728031783120C0D0E0D7F3957
:1001400083160313D300831203170D0883160313BA
:10015000D400831203170F0883160313D500530826
:1001600083120C1EB12899008316540883120317BA
:100170008D00831603135508831203178F008D0A11
:1001800003198F0A031083160313D20B66288312F8
:10019000080080080319E6288316D3010408D2005A
:1001A0005310831B5314000883120C1ED52899008A
:1001B000831652088400831353188317840A031D7F
:1001C000E4288312850A83168312C9280800243084
:1001D0008316A0004930A1006430A2003A30A30089
:1001E0002030A4006930A5007230A6006D30A70051
:1001F0007230A8006130A9006B30AA003430AB0027
:100200002E30AC006330AD002030AE003430AF0093
:100210003630B0003830B1003130B2002030B30099
:100220003230B4003030B5003130B6003630B7006F
:100230002D30B8003030B9003830BA002D30BB0056
:100240003130BC003630BD002030BE003130BF0040
:100250003430C0003A30C1003330C2003930C300FE
:100260003A30C4003230C5003730C6005A30C700BB
:100270002030C8006B30C9006130CA006B30CB0041
:100280006C30CC002030CD002430CE00CF01D30123
:10029000A030D2008312452001307802A03E8400B5
:1002A00083130008243C031D61298316D301A03069
:1002B000D2008312452001307802A03E84008313CF
:1002C0008001203003178D0000308F0003100F30A5
:1002D00083160313D2008312652022308400831317
:1002E000C920283003178D0000308F0003140F3011
:1002F00083160313D2008312652023300C1E7E293F
:100300009900A43084008313C9200D300C1E862967
:1003100099000A300C1E8A2999006400080083168F
:1003200086140610831206100D30F700F70B96297D
:1003300083168610831286100D30F700F70B9E2966
:10034000831606140D30F700F70BA42986148312C8
:100350000800831686140D30F700F70BAD2906143C
:100360000D30F700F70BB2298610831286100D307E
:10037000F700F70BB92983160610831206100D300B
:10038000F700F70BC1290800E408031DCC298316E8
:10039000861083128610CF29831686148312D029E3
:1003A000D129D229831606141A30F700F70BD62963
:1003B0000000061083120610A7080319E52983160A
:1003C0000612103083128606E9298316061283125C
:1003D00006164230F700F70BEB290000A7080319B7
:1003E000F72983160612103083128606FB2983161E
:1003F00006128312061608008316861406141A3095
:10040000F700F70B012A000086148312861C0B2AC2
:100410000130E4000C2AE401831606108312061052
:10042000A7080319192A83160612103083128606AC
:100430001D2A83160612831206164230F700F70BA8
:100440001F2A0000A70803192B2A83160612103052
:10045000831286062F2A8316061283120616640854
:10046000F80008000830E100E1080319442AE01F01
:100470003C2A0130E3003D2AE3016308E400C42183
:100480000310E00DE103342AFC217808E200620841
:10049000F80008000830E100E10803195C2AFC219B
:1004A000F8080319572A0310E00D60145A2A0310A4
:1004B000E00D6010E1034C2A5F08E400C4216008ED
:1004C000F80008000310D40D8F21A9215408E00082
:1004D00032225508DF00E0003222A9215408E00052
:1004E0003222DF014A227808D800DF014A22780848
:1004F000D7005708DE005808DD000130DF004A222F
:100500007808DC008F215408DB005508DA00540815
:10051000D900D601E0015630DF002F30E700E601B8
:10052000E501E401E3010130E2000730E1002F3092
:10053000E700E8010530E900EA0169085F07840087
:100540008313601883170008EC008030F7006A08F6
:10055000F8000319AF2A0310F70CF80BAB2A770841
:100560006C05031DCD2AE9080319CD2AE7036A08A3
:10057000063C031CBD2AEA0ABF2AEA01E903A708D0
:100580000319C82A83160612103083128606CC2A55
:1005900083160612831206169D2A08306702E800A9
:1005A000E8080319052B0530E900690FD82AF62A57
:1005B00001306902613E84008313801FE52AE90847
:1005C0000319E52A0130EB00E62AEB0161306907E7
:1005D000840083130310000D8000613069078400DC
:1005E00083136B0800078000E903D52AE803A708F6
:1005F0000319002B83160612103083128606042B73
:100600008316061283120616D02AE9016908053CF2
:10061000031C282B69085F07F8006008FA0003181C
:10062000FA0A7808840083137A1883170008EE000A
:10063000613069078400831300086E06EE007808B5
:10064000840083137A1883176E088000E90A062B4A
:100650006708083C031C8F2A5F0884008313601816
:1006600083170008F80078085C020319392BDE01B3
:10067000DD015D08F8005E08F900080083168613A6
:10068000861383128613A70803194C2B83160612B0
:10069000103083128606502B83160612831206161C
:1006A0004230F700F70B522B0000A70803195E2B0E
:1006B00083160612103083128606622B83160612EA
:1006C000831206164230F700F70B642B0000A708D0
:1006D0000319702B83160612103083128606742BB2
:1006E00083160612831206164230F700F70B762B9C
:1006F0000000A7080319822B8316061210308312FC
:100700008606862B83160612831206164230F700E1
:10071000F70B882B0000A7080319942B83160612E9
:10072000103083128606982B831606128312061643
:100730004230F700F70B9A2B0000A7080319A62BED
:1007400083160612103083128606AA2B8316061211
:1007500083120616831686170330F700F70BAE2BAD
:100760008312861BB62B0030F800112C2B30F700BB
:10077000F70BB82BA7080319C32B831606121030EA
:1007800083128606C72B8316061283120616541090
:10079000861F5414A7080319D32B83160612103092
:1007A00083128606D72B8316061283120616423052
:1007B000F700F70BD92B0000A7080319E52B8316C8
:1007C0000612103083128606E92B83160612831256
:1007D00006164230F700F70BEB2B0000A7080319B1
:1007E000F72B83160612103083128606FB2B831616
:1007F0000612831206161330F700F70BFD2B002CA0
:10080000A7080319092C83160612103083128606D6
:100810000D2C831606128312061600305418013070
:10082000F80008000130D5005508083C031C702C66
:100830000310D40C003003180130D6005608D7003E
:10084000831686138613831286130630F700F70B80
:10085000272C0000D70803193D2C83168613861316
:10086000831286170630F700F70B342C0000861B26
:100870003C2C0030F800682C4C2C83168613861311
:10088000831286130630F700F70B442C0000861FF6
:100890004C2C0030F800682C2130F700F70B4E2C60
:1008A00083168613861383128617A70803195E2CF6
:1008B00083160612103083128606622C83160612E7
:1008C000831206162130F700F70B642C0130F80074
:1008D000F808031D6E2C0030F800722CD50A142C79
:1008E0000130F8000800D701D60157085502031C53
:1008F000952C031D7F2C540856020318952CA7082D
:100900000319882C831606121030831286068C2C4D
:1009100083160612831206164230F700F70B8E2C50
:100920000000D60A0319D70A752C08000130D6003A
:100930005608083C031CCE2C83168613861383129C
:1009400086130930F700F70BA32C831686170330A4
:10095000F700F70BA92C83125810861B581442304D
:10096000F700F70BB12C0000A7080319BD2C831664
:100970000612103083128606C12C831606128312CB
:100980000616003058180130F800F808031DCA2C6C
:100990000310CB2C0314D70CD60A982C5708F80058
:1009A0008A156F29550857068039D900D51FDD2CC7
:1009B000D409D509D40A0319D50AD71FE42CD609BE
:1009C000D709D60A0319D70A1030D800F701FA015F
:1009D000D50CD40C031CF22C5608F7070318FA0A9E
:1009E0005708FA07FA0CF70CF90CF80CD80BE82C9E
:1009F000D91FFF2CF809F909F80A0319F90A8A1511
:100A00008A29570859068039DB00D71F0C2DD609D3
:100A1000D709D60A0319D70AD91F132DD809D9091E
:100A2000D80A0319D90AF801F901F701FA0159089E
:100A3000031D1D2D58080319372D1030DA0003103F
:100A4000D60DD70DF70DFA0D59087A02031D2A2D80
:100A500058087702031C332D5808F702031CFA03C9
:100A60005908FA020314F80DF90DDA0B1F2DDB1FDC
:100A70003E2DF809F909F80A0319F90A8A15982987
:100A8000280884008313291883175D088000840ACE
:100A90008001A80A0319A90A080080080319622D19
:100AA000D5010408D4005510831B55140008DD003F
:100AB000402554088400831355188317840A0319AA
:100AC000850A4D2D8A15C029DC010408DB005C1065
:100AD000831B5C14550EF038D700D707E23ED800D0
:100AE000323EDA0055080F39D807D807DA07E93E51
:100AF000D900D907D907540E0F39D907DA07D90D0C
:100B0000DA0DDA09DA0D54080F39DA07D70D073094
:100B1000D6000A30DA07D903031C8A2DD907D80377
:100B2000031C8E2DD807D703031C922DD707D6039D
:100B3000031C962D56308400831307305B055B132E
:100B400084075A30040203195B170008F700031DDD
:100B5000B12D5B1BB12D5B1AC32DDB19B12D2030DC
:100B6000B42DDB155B123030F707D5010408D40033
:100B70005510831B55147708DD0040255408840068
:100B8000831355188317840A5B1FA12D8A15F12939
:100B9000DC010408DB005C10831B5C14D51FD82D1E
:100BA000DB175B1EDB0AD409D509D40A0319D50A61
:100BB000550EF038D700D707E23ED800323EDA00B3
:100BC00055080F39D807D807DA07E93ED900D90701
:100BD000D907540E0F39D907DA07D90DDA0DDA091A
:100BE000DA0D54080F39DA07D70D0730D6000A306E
:100BF000DA07D903031CF82DD907D803031CFC2DF1
:100C0000D807D703031C002ED707D603031C042ED6
:100C100056308400831307305B055B1384035B0548
:100C2000031D192E5B1A840A5B1A192E2030F70057
:100C3000362E84075A30040203195B170008F700A8
:100C4000031D2A2E5B1B2A2E5B1A442EDB192A2E2B
:100C50002030352EDB1F322E2D30F70084035B133E
:100C6000DB13362EDB155B123030F707D501040895
:100C7000D4005510831B55147708DD004025540817
:100C80008400831355188317840A5B1F1A2E0800EB
:100C90005708F80156020318502E5608F7005C2E2C
:100CA000F7010830D800D60DF70D57087702031862
:100CB000F700F80DD80B532E080078085408D6001A
:100CC0006430D70048267708D40078083030031DF8
:100CD000702ED51C772ED519772E551A2030732EED
:100CE000D51155125514F8077808DD004025540831
:100CF000D6000A30D70048267708D400780830306C
:100D0000031D882ED5198C2E551C8C2E551A20307B
:100D1000F8077808DD0040253030D4075408DD009E
:100D200040250800D61BA42E0F30F700550EF705FE
:100D30000A30770203189F2E3030F707A12E56088D
:100D4000F7077708DD0040250F30D5050A3055023A
:100D50000318AC2E3030AE2ED6135608D5075508E2
:060D6000DD004025080043
:10100000840183131F308305723083168F000F080D
:1010100033309900A23098009030831298008316E4
:101020001F129F121B0880399B0007309C008312FF
:10103000A001A1013430A2002E30A3003130A40061
:10104000A501A801A90183160612831206168316AC
:101050008611831286110430D400FA30D5008A112B
:1010600031208A15D40B2D286400AB01AA01A601FA
:10107000A701BB013C14BC108A11E7208A15D401DA
:101080000630D5008A1162228A157908AF007808E7
:10109000AE00D4010730D5008A1162228A15790882
:1010A000AD007808AC008A113E238A15CC30D400FC
:1010B0008A1112248A154430D4008A1112248A1508
:1010C0000430D400FA30D5008A1131208A15D40BAF
:1010D000622864005A30BA003A08593C0318BA0A28
:1010E000D5016430D4008A1173248A153A08593C1A
:1010F00003188E28A60803198228831686118312E6
:10110000861586288316861183128611A608031D6C
:10111000A603A708031DA703BA0164008C1A92282E
:101120003C1C6C2864006B30C7008C1E9B288C1EF6
:1011300097281A08C70061304702E83E0318C728FD
:10114000183ECD2B1430A600BC10C728A601BC1039
:10115000C7281430A700BC10C7281430A700A60069
:10116000BC10C728A701BC10C728A708031DBB28AF
:101170008A11E7208A15C7283C14BC10C7283C10E8
:10118000BC10C7283C14BC14C7288A0100281812B8
:101190001816AA0A0319AB0AD4010630D5008A1121
:1011A00062228A157908AF007808AE0003102E0D70
:1011B000D4002F0DD500B3305402F7005508FA00C3
:1011C0006A30031C6B30FA027708B0007A08B1006D
:1011D000D4010730D5008A1162228A157908AD0042
:1011E0007808AC002D08473C03180229FF3A031D7C
:1011F000FD282C08E13C031802299530B3004D303E
:10120000B200142903102C0DD4002D0DD500B330DD
:101210005402F7005508FA006A30031C6B30FA02DA
:101220007708B2007A08B300D4010830D5008A11DB
:1012300062228A157908AD007808AC002D08473C79
:1012400003182E29FF3A031D29292C08E13C031815
:101250002E299530B5004D30B400402903102C0DD7
:10126000D4002D0DD500B3305402F7005508FA0014
:101270006A30031C6B30FA027708B4007A08B500B4
:101280008A113E238A15CC30D4008A1112248A1583
:101290004430D4008A1112248A1564001730D50016
:1012A0007030D4008A1173248A158A113E238A155E
:1012B000CC30D4008A1112248A15BE30D4008A1191
:1012C00012248A15C8014808083C031C79293D30BE
:1012D0004807D400D5010318D50A8A11962C8A151F
:1012E0005408840083135518831778088000C80AAF
:1012F00063293D08B8003E08B9003908B70038082E
:10130000B6003708D5003608D400D7010630D6001D
:101310008A11D22C8A157908D5007808D4003708AC
:10132000D7003608D600D9010430D8008A11012D23
:101330008A1578085407B6005508B70079080318CD
:10134000790FB707D201D5013230D4008A11732446
:101350008A1524300C1EAA299900D5013230D400F8
:101360008A1173248A15A9014930A8004D30DD0087
:101370008A1140258A152230840083138A114D2D4D
:101380008A152030DD008A1140258A15D1014930A7
:1013900051078400831380080319E629D5013230F0
:1013A000D4008A1173248A154930510784008313AD
:1013B0000008D40054080C1EDB2999005108D10AFA
:1013C000493E840083130008D206C729A901493089
:1013D000A800103084002B08D5002A08D4008A11F8
:1013E000642D8A152030DD008A1140258A15D1012F
:1013F000493051078400831380080319172AD50147
:101400003230D4008A1173248A1549305107840080
:1014100083130008D40054080C1E0C2A99005108AC
:10142000D10A493E840083130008D206F829A90195
:101430004930A800103084003108D5003008D400AD
:101440008A11C8258A152030DD008A1140258A15A9
:10145000D101493051078400831380080319482AB9
:10146000D5013230D4008A1173248A1549305107CE
:10147000840083130008D40054080C1E3D2A9900F0
:101480005108D10A493E840083130008D206292A54
:10149000A9014930A800103084003308D500320873
:1014A000D4008A11C8258A152030DD008A11402514
:1014B0008A15D1014930510784008313800803192C
:1014C000792AD5013230D4008A1173248A15493023
:1014D0005107840083130008D40054080C1E6E2AA0
:1014E00099005108D10A493E840083130008D206AE
:1014F0005A2AA9014930A800103084003508D500C7
:101500003408D4008A11C8258A152030DD008A11DC
:1015100040258A15D1014930510784008313800882
:101520000319AA2AD5013230D4008A1173248A15EE
:1015300049305107840083130008D40054080C1E5E
:101540009F2A99005108D10A493E8400831300085C
:10155000D2068B2AA9014930A80010308400370830
:10156000D5003608D4008A11C8258A152030DD0040
:101570008A1140258A15D10149305107840083130F
:1015800080080319DB2AD5013230D4008A11732474
:101590008A1549305107840083130008D400540889
:1015A0000C1ED02A99005108D10A493E84008313A9
:1015B0000008D206BC2AA9014930A8002608D40098
:1015C0001B30D5008A115D268A152030DD008A1176
:1015D00040258A15D10149305107840083138008C2
:1015E00003190A2BD5013230D4008A1173248A15CD
:1015F00049305107840083130008D40054080C1E9E
:10160000FF2A99005108D10A493E8400831300083B
:10161000D206EB2AA9014930A8002708D4001B30C4
:10162000D5008A115D268A152030DD008A114025FB
:101630008A15D101493051078400831380080319AA
:10164000392BD5013230D4008A1173248A154930E0
:101650005107840083130008D40054080C1E2E2B5D
:1016600099005108D10A493E840083130008D2062C
:101670001A2BA9014930A8002A30DD008A11402523
:101680008A155208D5003730D6008A1192268A155D
:101690002030DD008A1140258A15D10149305107DB
:1016A0008400831380080319672BD5013230D400DE
:1016B0008A1173248A155108D10A493E8400831384
:1016C0000008D40054080C1E632B99004E2BD30144
:1016D0005308083C031C9D2B3D30530784008313A3
:1016E0000008D400A9014930A8005408D5003730BB
:1016F000D6008A1192268A152030DD008A114025F5
:101700008A15D101493051078400831380080319D9
:101710009B2BD5013230D4008A1173248A155108CD
:10172000D10A493E840083130008D40054080C1EDB
:10173000972B9900822BD30A682BA9014930A80066
:101740000D30DD008A1140258A150A30DD008A112E
:1017500040258A15D1014930510784008313800840
:101760000319C42BD5013230D4008A1173248A1591
:101770005108D10A493E840083130008D40054085C
:101780000C1EC02B9900AB2BD5013230D4008A112E
:1017900073248A1564006A2863000A148A140A11E3
:1017A0008207C228C728A628C728C728C728C7284D
:1017B000A228B528C728C728B228C728C728A9281B
:1017C000C728C728BC28BF28C728C528C728C728B6
:0217D000AD2842
:061980008A0100280800A6
:04400E00143FFC3F20
:00000001FF
;PIC16F88
;CRC=405C  CREATED="16-Aug-16 16:47"
