:0C00000008308A0000280000202800348Epppppppppppppppppppppppppppppppppppppppp
:100040000A108A100A1182070A340D340A340D345Apppppppppppppppppppppppppppppppppppppppp
:10005000233420344D34723461346B346F346D3456pppppppppppppppppppppppppppppppppppppppp
:1000600065347234203425347334203428344334D6pppppppppppppppppppppppppppppppppppppppp
:1000700029342034323430343034373420344B3463pppppppppppppppppppppppppppppppppppppppp
:1000800041344B344C340A340D3400340A108A1095pppppppppppppppppppppppppppppppppppppppp
:100090000A11820723340A340D3400340A108A10FEpppppppppppppppppppppppppppppppppppppppp
:1000A0000A11820723342034683420342D3420345Cpppppppppppppppppppppppppppppppppppppppp
:1000B00053347734693474346334683420344F34BFpppppppppppppppppppppppppppppppppppppppp
:1000C0006E342034483465346134743469346E34A9pppppppppppppppppppppppppppppppppppppppp
:1000D0006734203466346F34723420343234303430pppppppppppppppppppppppppppppppppppppppp
:1000E00073342E340A340D3400340A108A100A1185pppppppppppppppppppppppppppppppppppppppp
:1000F000820723342034633420342D3420344E34AApppppppppppppppppppppppppppppppppppppppp
:10010000653465346434203443346F346C3464347Fpppppppppppppppppppppppppppppppppppppppp
:10011000653472342E342034533477346934743473pppppppppppppppppppppppppppppppppppppppp
:100120006334683420344F346634663420344834C1pppppppppppppppppppppppppppppppppppppppp
:1001300065346134743469346E3467342E340A346Fpppppppppppppppppppppppppppppppppppppppp
:100140000D3400340A108A100A1182072334203437pppppppppppppppppppppppppppppppppppppppp
:100150006F3420342D3420344F34703465346E3491pppppppppppppppppppppppppppppppppppppppp
:100160002034743468346534203444346F346D344Epppppppppppppppppppppppppppppppppppppppp
:100170006534203466346F34723420343234303491pppppppppppppppppppppppppppppppppppppppp
:1001800073342E340A340D3400340A108A100A11E4pppppppppppppppppppppppppppppppppppppppp
:100190008207233420346C3420342D3420344C3402pppppppppppppppppppppppppppppppppppppppp
:1001A0006F3463346B3420347434683465342034F1pppppppppppppppppppppppppppppppppppppppp
:1001B00064346F346D3465342E340A340D340034B5pppppppppppppppppppppppppppppppppppppppp
:1001C0000A108A100A11E73E03188A0A82002334B3pppppppppppppppppppppppppppppppppppppppp
:1001D0002034783420342D3420344F347034653456pppppppppppppppppppppppppppppppppppppppp
:1001E0006E342034743468346534203444346F34CDpppppppppppppppppppppppppppppppppppppppp
:1001F0006D346534203461346E34643420347334A7pppppppppppppppppppppppppppppppppppppppp
:100200007734693474346334683420344F346E3452pppppppppppppppppppppppppppppppppppppppp
:100210002034483465346134743469346E3467345Epppppppppppppppppppppppppppppppppppppppp
:100220002E340A340D3400340A148A100A1182075Dpppppppppppppppppppppppppppppppppppppppp
:1002300023342034693420342D3420345034723443pppppppppppppppppppppppppppppppppppppppp
:1002400069346E34743420347434683469347334EBpppppppppppppppppppppppppppppppppppppppp
:10025000203449346E3466346F3472346D34613412pppppppppppppppppppppppppppppppppppppppp
:10026000743469346F346E342E340A340D340034EFpppppppppppppppppppppppppppppppppppppppp
:100270000A148A100A11820723342034723420347Dpppppppppppppppppppppppppppppppppppppppp
:100280002D34203452346534703465346134743420pppppppppppppppppppppppppppppppppppppppp
:1002900020346D34653461347334753472346534ACpppppppppppppppppppppppppppppppppppppppp
:1002A00020346534763465347234793420347334D0pppppppppppppppppppppppppppppppppppppppp
:1002B000653463346F346E3464342E340A340D3450pppppppppppppppppppppppppppppppppppppppp
:1002C00000340A148A100A1182072334203473344Cpppppppppppppppppppppppppppppppppppppppp
:1002D00020342D342034533469346E3467346C3414pppppppppppppppppppppppppppppppppppppppp
:1002E000653420346D34653461347334753472345Cpppppppppppppppppppppppppppppppppppppppp
:1002F000653420346D346F346434653420346F34A5pppppppppppppppppppppppppppppppppppppppp
:100300006E342034643465346D3461346E34643456pppppppppppppppppppppppppppppppppppppppp
:100310002E340A340D3400340A148A100A1182076Cpppppppppppppppppppppppppppppppppppppppp
:1003200023342034753420342D3420345534703443pppppppppppppppppppppppppppppppppppppppp
:10033000643461347434653420346634693472341Epppppppppppppppppppppppppppppppppppppppp
:100340006D3477346134723465342E34203447345Cpppppppppppppppppppppppppppppppppppppppp
:100350006F34203474346F3420347434683465342Apppppppppppppppppppppppppppppppppppppppp
:10036000203442346F346F34743420344C346F345Epppppppppppppppppppppppppppppppppppppppp
:1003700061346434653472342E340A340D340034FCpppppppppppppppppppppppppppppppppppppppp
:100380000A148A100A118207233420343C3473344Fpppppppppppppppppppppppppppppppppppppppp
:1003900065347134753465346E34633465343E3499pppppppppppppppppppppppppppppppppppppppp
:1003A00020343C3461346D346234693465346E34E5pppppppppppppppppppppppppppppppppppppppp
:1003B00074345B3431342F343134303430342034BDpppppppppppppppppppppppppppppppppppppppp
:1003C00043345D343E3420343C3473346B347934FCpppppppppppppppppppppppppppppppppppppppp
:1003D0005B3431342F3431343034303420344334CEpppppppppppppppppppppppppppppppppppppppp
:1003E0005D343E34203400340A148A100A11FB3E76pppppppppppppppppppppppppppppppppppppppp
:1003F00003188A0A82003C346834653461347434EApppppppppppppppppppppppppppppppppppppppp
:1004000069346E3467345B3473345D343E34203485pppppppppppppppppppppppppppppppppppppppp
:100410003C3464346F346D3465345B3473345D3430pppppppppppppppppppppppppppppppppppppppp
:100420003E3420343C3463346834653463346B3494pppppppppppppppppppppppppppppppppppppppp
:100430003E340A340D340A340D3400344030840024pppppppppppppppppppppppppppppppppppppppp
:1004400000080319302A0230F800F701F70B262ABApppppppppppppppppppppppppppppppppppppppp
:10045000F80B252A9730F700F70B2C2A800B232A5Cpppppppppppppppppppppppppppppppppppppppp
:1004600000347108F20072088400800803193A2AE7pppppppppppppppppppppppppppppppppppppppp
:10047000F20A332A71087202F80000342430BF00F7pppppppppppppppppppppppppppppppppppppppp
:100480004930C0006430C1003A30C2002030C3009Fpppppppppppppppppppppppppppppppppppppppp
:100490006930C4007230C5006D30C6007230C700CCpppppppppppppppppppppppppppppppppppppppp
:1004A0006130C8006B30C9003430CA002E30CB0038pppppppppppppppppppppppppppppppppppppppp
:1004B0006330CC002030CD003130CE003330CF005Fpppppppppppppppppppppppppppppppppppppppp
:1004C0003030D0003430D1002030D2003230D30070pppppppppppppppppppppppppppppppppppppppp
:1004D0003030D400D5003930D6002D30D700303040pppppppppppppppppppppppppppppppppppppppp
:1004E000D8003130D9002D30DA003130DB00373020pppppppppppppppppppppppppppppppppppppppp
:1004F000DC002030DD003030DE003930DF003A3003pppppppppppppppppppppppppppppppppppppppp
:10050000E0003130E1003530E2003A30E3003430D1pppppppppppppppppppppppppppppppppppppppp
:10051000E4003630E5005A30E6002030E7006B306Apppppppppppppppppppppppppppppppppppppppp
:10052000E8006130E9006B30EA006C30EB0020300Dpppppppppppppppppppppppppppppppppppppppp
:10053000EC002430ED00EE01EF01F0013F30F1005Epppppppppppppppppppppppppppppppppppppppp
:100540003122013078023F3E84000008243C031D24pppppppppppppppppppppppppppppppppppppppp
:10055000B12A3F30F1003122013078023F3E840061pppppppppppppppppppppppppppppppppppppppp
:100560008001F10171082020F10AF70077080C1EC4pppppppppppppppppppppppppppppppppppppppp
:10057000B72A99000F307102031DB22A213084007Epppppppppppppppppppppppppppppppppppppppp
:10058000003000040319CA2A0C1EC42A000899006Epppppppppppppppppppppppppppppppppppppppp
:10059000840AC02A1130F30073082020F30AF70000pppppppppppppppppppppppppppppppppppppppp
:1005A00077080C1ED12A990021307302031DCC2A32pppppppppppppppppppppppppppppppppppppppp
:1005B00023300C1ED92A99004330840000300004F7pppppppppppppppppppppppppppppppppppppppp
:1005C0000319E82A0C1EE22A00089900840ADE2A90pppppppppppppppppppppppppppppppppppppppp
:1005D0000A300C1EE92A99000D300C1EED2A9900F4pppppppppppppppppppppppppppppppppppppppp
:1005E000F1017108462000380319FB2AF10A0C1E9Cpppppppppppppppppppppppppppppppppppppppp
:1005F000F72A9900F12AF10171084E2000380319F9pppppppppppppppppppppppppppppppppppppppp
:10060000062BF10A0C1E022B9900FC2AF10171083Dpppppppppppppppppppppppppppppppppppppppp
:10061000752000380319112BF10A0C1E0D2B9900BFpppppppppppppppppppppppppppppppppppppppp
:10062000072BF1017108A220003803191C2BF10AD5pppppppppppppppppppppppppppppppppppppppp
:100630000C1E182B9900122BF1017108C5200038EFpppppppppppppppppppppppppppppppppppppppp
:100640000319272BF10A0C1E232B99001D2BF101F6pppppppppppppppppppppppppppppppppppppppp
:100650007108E02000380319322BF10A0C1E2E2BF2pppppppppppppppppppppppppppppppppppppppp
:100660009900282BF10171081421003803193D2B42pppppppppppppppppppppppppppppppppppppppp
:10067000F10A0C1E392B9900332BF1017108382136pppppppppppppppppppppppppppppppppppppppp
:1006800000380319482BF10A0C1E442B99003E2B0Dpppppppppppppppppppppppppppppppppppppppp
:10069000F1017108612100380319532BF10A0C1E76pppppppppppppppppppppppppppppppppppppppp
:1006A0004F2B9900492BF10171088C210038031957pppppppppppppppppppppppppppppppppppppppp
:1006B0005E2BF10A0C1E5A2B9900542BF101710884pppppppppppppppppppppppppppppppppppppppp
:1006C000462000380319692BF10A0C1E652B99008Epppppppppppppppppppppppppppppppppppppppp
:1006D0005F2BF1017108C02100380319742BF10A56pppppppppppppppppppppppppppppppppppppppp
:1006E0000C1E702B99006A2BF1017108F42100385Fpppppppppppppppppppppppppppppppppppppppp
:1006F00003197F2BF10A0C1E7B2B9900752B6400CCpppppppppppppppppppppppppppppppppppppppp
:100700000034831686140610831206100D30F7008Dpppppppppppppppppppppppppppppppppppppppp
:10071000F70B882B83168610831286100D30F70096pppppppppppppppppppppppppppppppppppppppp
:10072000F70B902B831606140D30F700F70B962B62pppppppppppppppppppppppppppppppppppppppp
:10073000861483120034831686140D30F700F70BEDpppppppppppppppppppppppppppppppppppppppp
:100740009F2B06140D30F700F70BA42B8610831295pppppppppppppppppppppppppppppppppppppppp
:1007500086100D30F700F70BAB2B831606108312B3pppppppppppppppppppppppppppppppppppppppp
:1007600006100D30F700F70BB32B0034CF08031D34pppppppppppppppppppppppppppppppppppppppp
:10077000BE2B8316861083128610C12B8316861417pppppppppppppppppppppppppppppppppppppppp
:10078000831200000000000000000000000083163Bpppppppppppppppppppppppppppppppppppppppp
:1007900006141A30F700F70BCB2B0000061083125Bpppppppppppppppppppppppppppppppppppppppp
:1007A0000610A6080319DA2B8316061210308312DEpppppppppppppppppppppppppppppppppppppppp
:1007B0008606DE2B83160612831206164230F700D9pppppppppppppppppppppppppppppppppppppppp
:1007C000F70BE02B0000A6080319EC2B831606128Apppppppppppppppppppppppppppppppppppppppp
:1007D000103083128606F02B83160612831206163Bpppppppppppppppppppppppppppppppppppppppp
:1007E00000348316861406141A30F700F70BF62B24pppppppppppppppppppppppppppppppppppppppp
:1007F000000086148312861C002C0130CF00012CCFpppppppppppppppppppppppppppppppppppppppp
:10080000CF018316061083120610A60803190E2CBApppppppppppppppppppppppppppppppppppppppp
:1008100083160612103083128606122C83160612D7pppppppppppppppppppppppppppppppppppppppp
:10082000831206164230F700F70B142C0000A608BEpppppppppppppppppppppppppppppppppppppppp
:100830000319202C83160612103083128606242CEEpppppppppppppppppppppppppppppppppppppppp
:1008400083160612831206164F08F800003408308Bpppppppppppppppppppppppppppppppppppppppp
:10085000CC00CC080319392CCB1F312C0130CE0031pppppppppppppppppppppppppppppppppppppppp
:10086000322CCE014E08CF00B6230310CB0DCC03A3pppppppppppppppppppppppppppppppppppppppp
:10087000292CF1237808CD004D08F8000034083009pppppppppppppppppppppppppppppppppppppppp
:10088000CC00CC080319512CF123F80803194C2C87pppppppppppppppppppppppppppppppppppppppp
:100890000310CB0D4B144F2C0310CB0D4B10CC037Epppppppppppppppppppppppppppppppppppppppp
:1008A000412C4A08CF00B6234B08F800003403104Fpppppppppppppppppppppppppppppppppppppppp
:1008B000BF0D81239B233F08CB0027244008CA009Bpppppppppppppppppppppppppppppppppppppppp
:1008C000CB0027249B233F08CB002724CA013F24C9pppppppppppppppppppppppppppppppppppppppp
:1008D0007808C300CA013F247808C2004208C90052pppppppppppppppppppppppppppppppppppppppp
:1008E0004308C8000130CA003F247808C7008123ACpppppppppppppppppppppppppppppppppppppppp
:1008F0003F08C6004008C5003F08C400C1014130A0pppppppppppppppppppppppppppppppppppppppp
:10090000CA002F30D100D001CF01CE01CD0101307Epppppppppppppppppppppppppppppppppppppppp
:10091000CC000730CB002F30D100D2010530D300FEpppppppppppppppppppppppppppppppppppppppp
:10092000D4014A08530784000008D6008030F7003Dpppppppppppppppppppppppppppppppppppppppp
:100930005408F8000319A02C0310F70CF80B9C2C9Apppppppppppppppppppppppppppppppppppppppp
:1009400077085605031DBE2CD3080319BE2CD1030Epppppppppppppppppppppppppppppppppppppppp
:100950005408063C031CAE2CD40AB02CD401D3039Bpppppppppppppppppppppppppppppppppppppppp
:10096000A6080319B92C83160612103083128606C6pppppppppppppppppppppppppppppppppppppppp
:10097000BD2C8316061283120616912C08305102E4pppppppppppppppppppppppppppppppppppppppp
:10098000D200D2080319F32C0530D300530FC92C21pppppppppppppppppppppppppppppppppppppppp
:10099000E42C013053024B3E8400801FD52CD30839pppppppppppppppppppppppppppppppppppppppp
:1009A0000319D52C0130D500D62CD5014B30530777pppppppppppppppppppppppppppppppppppppppp
:1009B00084000310000D80004B305307840055085Dpppppppppppppppppppppppppppppppppppppppp
:1009C00000078000D303C62CD203A6080319EE2C1Fpppppppppppppppppppppppppppppppppppppppp
:1009D00083160612103083128606F22C8316061236pppppppppppppppppppppppppppppppppppppppp
:1009E00083120616C12CD3015308053C031C0A2DA3pppppppppppppppppppppppppppppppppppppppp
:1009F0004A085307D60084000008D7004B3053073Dpppppppppppppppppppppppppppppppppppppppp
:100A0000840000085706D800560884005808800063pppppppppppppppppppppppppppppppppppppppp
:100A1000D30AF42C5108083C031C832C4A08840098pppppppppppppppppppppppppppppppppppppppp
:100A20000008F800780847020319182DC901C80109pppppppppppppppppppppppppppppppppppppppp
:100A30004808F8004908F9000034C201C101420821pppppppppppppppppppppppppppppppppppppppp
:100A40004002031C3F2D031D292D3F0841020318BEpppppppppppppppppppppppppppppppppppppppp
:100A50003F2DA6080319322D83160612103083127Bpppppppppppppppppppppppppppppppppppppppp
:100A60008606362D83160612831206164230F700CCpppppppppppppppppppppppppppppppppppppppp
:100A7000F70B382D0000C10A0319C20A1F2D0034DCpppppppppppppppppppppppppppppppppppppppp
:100A80002708840047088000840A8001A70A0034F0pppppppppppppppppppppppppppppppppppppppp
:100A90000408C600400EF038C200C207E23EC300A0pppppppppppppppppppppppppppppppppppppppp
:100AA000323EC50040080F39C307C307C507E93EFApppppppppppppppppppppppppppppppppppppppp
:100AB000C400C407C4073F0E0F39C407C507C40DDFpppppppppppppppppppppppppppppppppppppppp
:100AC000C50DC509C50D3F080F39C507C20D073053pppppppppppppppppppppppppppppppppppppppp
:100AD000C1000A30C507C403031C6A2DC407C30341pppppppppppppppppppppppppppppppppppppppp
:100AE000031C6E2DC307C203031C722DC207C10372pppppppppppppppppppppppppppppppppppppppp
:100AF000031C762D413084000730460546138407D9pppppppppppppppppppppppppppppppppppppppp
:100B000045300402031946170008F700031D902D15pppppppppppppppppppppppppppppppppppppppp
:100B1000461B902D461A9C2DC619902D2030932DE2pppppppppppppppppppppppppppppppppppppppp
:100B2000C61546123030F707C0010408BF00770829pppppppppppppppppppppppppppppppppppppppp
:100B3000C70040253F088400840A461F802D8A157Fpppppppppppppppppppppppppppppppppppppppp
:100B40003C290408C600C01FAD2DC617461EC60AA4pppppppppppppppppppppppppppppppppppppppp
:100B5000BF09C009BF0A0319C00A400EF038C2001Dpppppppppppppppppppppppppppppppppppppppp
:100B6000C207E23EC300323EC50040080F39C3074Apppppppppppppppppppppppppppppppppppppppp
:100B7000C307C507E93EC400C407C4073F0E0F39C9pppppppppppppppppppppppppppppppppppppppp
:100B8000C407C507C40DC50DC509C50D3F080F39FCpppppppppppppppppppppppppppppppppppppppp
:100B9000C507C20D0730C1000A30C507C403031CD6pppppppppppppppppppppppppppppppppppppppp
:100BA000CD2DC407C303031CD12DC307C203031CEFpppppppppppppppppppppppppppppppppppppppp
:100BB000D52DC207C103031CD92D41308400073055pppppppppppppppppppppppppppppppppppppppp
:100BC0004605461384034605031DED2D461A840A87pppppppppppppppppppppppppppppppppppppppp
:100BD000461AED2D2030F7000A2E84074530040216pppppppppppppppppppppppppppppppppppppppp
:100BE000031946170008F700031DFE2D461BFE2DB6pppppppppppppppppppppppppppppppppppppppp
:100BF000461A122EC619FE2D2030092EC61F062EABpppppppppppppppppppppppppppppppppppppppp
:100C00002D30F70084034613C6130A2EC61546126Cpppppppppppppppppppppppppppppppppppppppp
:100C10003030F707C0010408BF007708C70040253Fpppppppppppppppppppppppppppppppppppppppp
:100C20003F088400840A461FEE2D00344208F80174pppppppppppppppppppppppppppppppppppppppp
:100C3000410203181E2E4108F7002A2EF701083042pppppppppppppppppppppppppppppppppppppppp
:100C4000C300C10DF70D420877020318F700F80D35pppppppppppppppppppppppppppppppppppppppp
:100C5000C30B212E003478083F08C1006430C20065pppppppppppppppppppppppppppppppppppppppp
:100C600016267708BF0078083030031D3E2EC01CC2pppppppppppppppppppppppppppppppppppppppp
:100C7000452EC019452E401A2030412EC011401279pppppppppppppppppppppppppppppppppppppppp
:100C80004014F8077808C70040253F08C1000A3023pppppppppppppppppppppppppppppppppppppppp
:100C9000C20016267708BF0078083030031D562E94pppppppppppppppppppppppppppppppppppppppp
:100CA000C0195A2E401C5A2E401A2030F8077808D6pppppppppppppppppppppppppppppppppppppppp
:100CB000C70040253030BF073F08C700402500343Bpppppppppppppppppppppppppppppppppppppppp
:100CC000C01B722E0F30F7003F0EF7050A30770277pppppppppppppppppppppppppppppppppppppppp
:100CD00003186D2E3030F7076F2E4008F70777089Epppppppppppppppppppppppppppppppppppppppp
:100CE000C70040250F30BF050A303F0203187A2E97pppppppppppppppppppppppppppppppppppppppp
:100CF00030307C2EC0134008BF073F08C700402596pppppppppppppppppppppppppppppppppppppppp
:040D00008A151C2A0Apppppppppppppppppppppppppppppppppppppppp
:1010000084011F308305703083168F0033309900C0pppppppppppppppppppppppppppppppppppppppp
:101010002230980090308312980083161F129F127Epppppppppppppppppppppppppppppppppppppppp
:101020001B0880399B0007309C008312A0013430DCpppppppppppppppppppppppppppppppppppppppp
:10103000A1002E30A2003030A300A401A701831626pppppppppppppppppppppppppppppppppppppppp
:101040000612831206168316861183128611043047pppppppppppppppppppppppppppppppppppppppp
:10105000BF00FA30C0008A111E228A15BF0B292852pppppppppppppppppppppppppppppppppppppppp
:101060006400A901A801A501A60133148A113E223Apppppppppppppppppppppppppppppppppppppppp
:101070008A15BF010630C0008A1157248A157908E5pppppppppppppppppppppppppppppppppppppppp
:10108000AD007808AC00BF010730C0008A115724BApppppppppppppppppppppppppppppppppppppppp
:101090008A157908AB007808AA000430BF00FA303Epppppppppppppppppppppppppppppppppppppppp
:1010A000C0008A111E228A15BF0B4F2864005A30D7pppppppppppppppppppppppppppppppppppppppp
:1010B000B2003208593C0318B20AC0016430BF00C4pppppppppppppppppppppppppppppppppppppppp
:1010C0008A111D258A153208593C03187B28A5086Apppppppppppppppppppppppppppppppppppppppp
:1010D000031DA503A608031DA603A508031975286Bpppppppppppppppppppppppppppppppppppppppp
:1010E000831686118312861579288316861183123Apppppppppppppppppppppppppppppppppppppppp
:1010F0008611B20164008C1A7F28331C59286400C1pppppppppppppppppppppppppppppppppppppppp
:101100006B30B4008C1E88288C1E84281A08B4000Apppppppppppppppppppppppppppppppppppppppp
:1011100063303402EA3E0318AA28163E4F2A1430E0pppppppppppppppppppppppppppppppppppppppp
:10112000A500AA28A501AA281430A600AA281430D0pppppppppppppppppppppppppppppppppppppppp
:10113000A600A500AA28A601AA28A608031DA32880pppppppppppppppppppppppppppppppppppppppp
:101140008A113E228A15AA283314AA283310AA2805pppppppppppppppppppppppppppppppppppppppp
:101150008A01002818121816A80A0319A90ABF0143pppppppppppppppppppppppppppppppppppppppp
:101160000630C0008A1157248A157908AD00780826pppppppppppppppppppppppppppppppppppppppp
:10117000AC00BF010730C0008A1157248A157908D6pppppppppppppppppppppppppppppppppppppppp
:10118000AB007808AA0003102C0DBF002D0DC00085pppppppppppppppppppppppppppppppppppppppp
:10119000B3303F02F7004008FA006A30031C6B309Epppppppppppppppppppppppppppppppppppppppp
:1011A000FA027708AE007A08AF0003102A0DBF00DCpppppppppppppppppppppppppppppppppppppppp
:1011B0002B0DC000B3303F02F7004008FA006A3040pppppppppppppppppppppppppppppppppppppppp
:1011C000031C6B30FA027708B0007A08B100BE0148pppppppppppppppppppppppppppppppppppppppp
:1011D000C0013230BF008A111D258A1524300C1E33pppppppppppppppppppppppppppppppppppppppp
:1011E000EF289900C0013230BF008A111D258A15F1pppppppppppppppppppppppppppppppppppppppp
:1011F0003530A7004D30C7008A1140258A152130AFpppppppppppppppppppppppppppppppppppppppp
:10120000840000300004031910290408BF000008FEpppppppppppppppppppppppppppppppppppppppp
:10121000C7008A1140258A153F088400840A0129E5pppppppppppppppppppppppppppppppppppppppp
:101220002030C7008A1140258A15BD0135303D07A1pppppppppppppppppppppppppppppppppppppppp
:101230008400800803193229C0013230BF008A11AEpppppppppppppppppppppppppppppppppppppppp
:101240001D258A1535303D0784000008BF003F0882pppppppppppppppppppppppppppppppppppppppp
:101250000C1E282999003D08BD0A353E840000086Fpppppppppppppppppppppppppppppppppppppppp
:10126000BE0616293530A700103084002908C000BApppppppppppppppppppppppppppppppppppppppp
:101270002808BF008A11482D8A152030C7008A111Epppppppppppppppppppppppppppppppppppppppp
:1012800040258A15BD0135303D07840080080319CBpppppppppppppppppppppppppppppppppppppppp
:101290005F29C0013230BF008A111D258A15353003pppppppppppppppppppppppppppppppppppppppp
:1012A0003D0784000008BF003F080C1E5529990027pppppppppppppppppppppppppppppppppppppppp
:1012B0003D08BD0A353E84000008BE06432935308Epppppppppppppppppppppppppppppppppppppppp
:1012C000A700103084002F08C0002E08BF008A112Cpppppppppppppppppppppppppppppppppppppppp
:1012D000A1258A152030C7008A1140258A15BD0135pppppppppppppppppppppppppppppppppppppppp
:1012E00035303D078400800803198C29C001323055pppppppppppppppppppppppppppppppppppppppp
:1012F000BF008A111D258A1535303D07840000087Epppppppppppppppppppppppppppppppppppppppp
:10130000BF003F080C1E822999003D08BD0A353EEApppppppppppppppppppppppppppppppppppppppp
:1013100084000008BE0670293530A7001030840014pppppppppppppppppppppppppppppppppppppppp
:101320003108C0003008BF008A11A1258A1520307Dpppppppppppppppppppppppppppppppppppppppp
:10133000C7008A1140258A15BD0135303D0784005Cpppppppppppppppppppppppppppppppppppppppp
:1013400080080319B929C0013230BF008A111D2558pppppppppppppppppppppppppppppppppppppppp
:101350008A1535303D0784000008BF003F080C1E89pppppppppppppppppppppppppppppppppppppppp
:10136000AF2999003D08BD0A353E84000008BE063Dpppppppppppppppppppppppppppppppppppppppp
:101370009D293530A7002508BF001B30C0008A1109pppppppppppppppppppppppppppppppppppppppp
:101380002B268A152030C7008A1140258A15BD01F9pppppppppppppppppppppppppppppppppppppppp
:1013900035303D07840080080319E429C00132304Cpppppppppppppppppppppppppppppppppppppppp
:1013A000BF008A111D258A1535303D0784000008CDpppppppppppppppppppppppppppppppppppppppp
:1013B000BF003F080C1EDA2999003D08BD0A353EE2pppppppppppppppppppppppppppppppppppppppp
:1013C00084000008BE06C8293530A7002608BF00E3pppppppppppppppppppppppppppppppppppppppp
:1013D0001B30C0008A112B268A152030C7008A11C5pppppppppppppppppppppppppppppppppppppppp
:1013E00040258A15BD0135303D078400800803196Apppppppppppppppppppppppppppppppppppppppp
:1013F0000F2AC0013230BF008A111D258A153530F1pppppppppppppppppppppppppppppppppppppppp
:101400003D0784000008BF003F080C1E052A990014pppppppppppppppppppppppppppppppppppppppp
:101410003D08BD0A353E84000008BE06F32935307Cpppppppppppppppppppppppppppppppppppppppp
:10142000A7002A30C7008A1140258A153E08BF0050pppppppppppppppppppppppppppppppppppppppp
:101430003730C0008A11602E8A150A30C7008A1121pppppppppppppppppppppppppppppppppppppppp
:1014400040258A150D30C7008A1140258A15BD0137pppppppppppppppppppppppppppppppppppppppp
:1014500035303D078400800803193F2AC00132302Fpppppppppppppppppppppppppppppppppppppppp
:10146000BF008A111D258A153D08BD0A353E84003Epppppppppppppppppppppppppppppppppppppppp
:101470000008C00040080C1E3B2A9900282AC00121pppppppppppppppppppppppppppppppppppppppp
:101480003230BF008A111D258A151730C000703018pppppppppppppppppppppppppppppppppppppppp
:10149000BF008A111D258A156400572863000A10B1pppppppppppppppppppppppppppppppppppppppp
:1014A0008A140A1182079228AA28AA28AA28AA28F8pppppppppppppppppppppppppppppppppppppppp
:1014B0008F289D28AA28AA289B28AA28AA289428E9pppppppppppppppppppppppppppppppppppppppp
:1014C000AA28AA28A428A628AA28A828AA28AA2898pppppppppppppppppppppppppppppppppppppppp
:0214D00097285Bpppppppppppppppppppppppppppppppppppppppp
:061980008A01002800347Apppppppppppppppppppppppppppppppppppppppp
:04400E00143FFC3F20pppppppppppppppppppppppppppppppppppppppp
:00000001FFpppppppppppppppppppppppppppppppppppppppp
;PIC16F88pppppppppppppppppppppppppppppppppppppppp
pppppppppppppppppppppppppppppppppppppppp
