:0C0000000F308A00762F00002028080036
:10004000FF00030E8301A1007F08A0000A08A7009B
:100050008A01A00E0408A2007708A3007808A40073
:100060007908A5007A08A600831383128C308400D7
:10007000801E3C288C1A4D28220884002308F70093
:100080002408F8002508F9002608FA0027088A0045
:10009000210E8300FF0E7F0E09008A114F288C1E4F
:1000A0004F281A080C1E522899008C128A113C28DD
:1000B0000D050D0523104226EF30E4327210A539EC
:1000C0002014C314201930183710CB204B260D05EF
:1000D00000002310D232F332723B65323A102526EB
:1000E000F5060A002310C2376F3A2026EF30E432BB
:1000F0007210D432733A201F3E1F0D0523100000EA
:100100006308E5006208E4006508FA0064088400FA
:1001100083137A188317800803199228E40A0319B5
:10012000E50A842862086402F7006508FA0063089B
:10013000031C630FFA027708F80008008316031700
:100140008C170C14000000000318CE2883120C0832
:100150007F390313E30003170D080313E4000317AB
:100160000F080313E50063080C1EB4289900640807
:1001700003178D000313650803178F0083168C1770
:100180000C140000000083120313E20BC828CB28D4
:1001900083160317CE28EE288316031783120C0D3F
:1001A0000E0D7F390313E30003170D080313E4005A
:1001B00003170F080313E50063080C1EDD289900E0
:1001C000640803178D000313650803178F008D0A59
:1001D00003198F0A03100313E20B9E2808008008FE
:1001E00003190529E3010408E2006310831B63146B
:1001F00000080C1EF9289900620884008313631814
:100200008317840A0319850AEF2808003008F801CB
:100210002F0203180E292F08F7001A29F7010830BA
:10022000B100AF0DF70D300877020318F700F80D95
:10023000B10B11290800AB012430AC004930AD00EE
:100240006430AE003A30AF002030B0006230B10010
:100250006C30B2006F30B3006130B4006430B50070
:100260006530B6007230B7002E30B8006330B90088
:100270002030BA003130BB003730BC003030BD0018
:100280003530BE002030BF003230C0003030C100F9
:100290003130C2003030C3002D30C4003130C500D1
:1002A0003230C6002D30C7003030C8003530C900AC
:1002B0002030CA003130CB003930CC003A30CD008C
:1002C0003230CE003430CF003A30D0003330D1005D
:1002D0003430D2005A30D3002030D4006B30D500F7
:1002E0006130D6006B30D7006C30D8002030D90098
:1002F0002430DA00DB013130DE002E30DF00313017
:10030000E000E101E3012C30E200802001307802BE
:100310002C3E840083130008243C031D9929E3012B
:100320002C30E2008020013078022C3E84008313C0
:100330008001583003178D0000308F0003100E30FD
:100340000313E2009E205E3084008313EF206030B0
:1003500003178D0000308F00031010300313E200EC
:100360009E2023300C1EB229990030308400831364
:10037000EF200D300C1EBA2999000A300C1EBE2940
:100380009900693003178D0000308F0003100C3086
:100390000313E2009E20103084000330AD00AC0156
:1003A000B4010408B3003410831B34142D0EF0384C
:1003B000AF00AF07E23EB000323EB2002D080F3969
:1003C000B007B007B207E93EB100B107B1072C0E84
:1003D0000F39B107B207B10DB20DB209B20D2C0839
:1003E0000F39B207AF0D0730AE000A30B207B103C4
:1003F000031CF629B107B003031CFA29B007AF03A9
:10040000031CFE29AF07AE03031C022A2E30840012
:100410008313073033053313840732300402031982
:1004200033170008F700031D1D2A331B1D2A331A3A
:10043000252AB3191D2A2030202AB3153312303053
:10044000F70777080C1E222A9900840A331F0D2A09
:100450000D300C1E292A99000A300C1E2D2A9900F5
:10046000723003178D0000308F0083168C170C1428
:100470000000000083120C087F390319782A031347
:10048000AC0003170D080313AD0003170F08031387
:10049000AE002C080C1E4A2A99002D0803178D0067
:1004A00003132E0803178F0083168C170C140000FB
:1004B000000083120C0D0E0D7F390319782A0313E7
:1004C000AC0003170D080313AD0003170F08031347
:1004D000AE002C080C1E6A2A99002D0803178D0007
:1004E00003132E0803178F008D0A03198F0A352A6C
:1004F000831603138C16C03083128B042B08AB0AAF
:10050000AC002C08AD001B30AE002D08AF006430ED
:10051000B00006217708AD0078083030031D972A17
:10052000AE1C9F2AAE199F2A2E1A20309A2AAE118D
:100530002E122E14F80778080C1E9C2A99002D08FC
:10054000AF000A30B00006217708AD0078083030DF
:10055000031DB02AAE19B52A2E1CB52A2E1A20303A
:10056000F80778080C1EB22A99003030AD072D0824
:100570000C1EB82A99007C300C1EBC2A99006430ED
:10058000AC002C308400831300080319D42A0230F5
:10059000F800F701F70BCA2AF80BC92A9730F700C1
:0E05A000F70BD02A800BC72A7E2A8A15022D5F
:081A00008A111B298A15080058
:101A40008316B1080319342D453083120C1E262D40
:101A50009900313083163207B30083120C1E2E2DED
:101A600099008A0100288316831208008316B601A4
:101A7000B7013708013C031C6A2D3508FA00340809
:101A8000840083137A1883170008403C0318572DED
:101A9000360EB800F030B8053408840083133518CA
:101AA000831700083807BF3E0A3EB600642D360E85
:101AB000B800F030B8053408840083133518831754
:101AC00000083807D03EB6003708B70AB40A031931
:101AD000B50A392D3608F800831208000B08840077
:101AE0008B13FC3003178D0583168C170C150430EF
:101AF000F70083120D087A020319842D83160C1443
:101B000000000000892D831278088C0079088E006F
:101B1000831655308D00AA308D008C140000000013
:101B20000000000083128D0AF70B7A2D83168C18A3
:101B3000972D0C110408831203138B040800E00195
:101B4000DF0140300C1EA22D9900E2012030E1009F
:101B500062080D3C031CE02D031DB22D6108003C02
:101B6000031CE02D610803178D000313620803179F
:101B70008F0083168C170C160C15831203130B0899
:101B8000F8008B138316031755308D00AA308D0093
:101B90008C14000000008C18CB2D0C1178088312D7
:101BA00003138B04831603170C122E3083120313B6
:101BB0000C1ED82D99002030E1070318E20AA82D49
:101BC00021300C1EE12D99008C1AE82D6400E42DC3
:101BD0008C1EE82D1A083A3C0319F02D6400E82DFC
:101BE000AC012D302C07840083138C1EF52D1A08B0
:101BF00080002C08AC0A2D3E840083130008663C4C
:101C0000031C062E2C082D3C0318F12D2C082E3C0D
:101C100003190C2E00300D2E0130E9008316B1009F
:101C20000130B200831220256400DB01E80103309B
:101C30002C0268020318302E2D306807E900EA01F3
:101C40000318EA0A6A088316B50083126908831626
:101C5000B400831236257808DB070230E807172E18
:101C60005B08FF3C013EDB0003302C022D3EE90007
:101C7000EA010318EA0A6A088316B50083126908A4
:101C80008316B4008312362578085B02031D4A2EA2
:101C900000304B2E0130E9008316B1000230B20053
:101CA000831220258316B5012F30B4008312362508
:101CB0007808E9008316B5013130B4008312362567
:101CC0006908DE007808DD008316B5013330B40002
:101CD000831236257808DC005D08E1005E08E2002A
:101CE0000310E20CE10C5C0B7B2E23300C1E762ED5
:101CF00099008A0100285C08043C0319812E0030F9
:101D0000822E0130E9008316B1000430B200831244
:101D10002025DC08031D662FE801E601E5016208C5
:101D2000E4006108E3006808073C031CC32E0310AD
:101D3000680DA03E840083136608FA006508F90068
:101D40006408F8006308F7000130E3070318E40AA9
:101D50000319E50A0319E60A7A08EE007708031763
:101D60008D000313780803178F0083168C170C144B
:101D70000000000083120C088000840A0E08800016
:101D80000313E80A932E0830E800E70103302C0221
:101D900068020318EF2E6708E70AA03EF800FA0170
:101DA0000318FA0A7808E9007A08EA002D30680773
:101DB000EB00EC010318EC0A6C088316B5008312E3
:101DC0006B088316B40083123625690884008313D8
:101DD0006A188317780880000230E807C62EE108E9
:101DE000031D262FE208031D262F0D30E200E1011E
:101DF000E8016808073C031C212F6208FA0061080B
:101E0000E10A0319E20AE9007A08EA000310680D02
:101E1000A03E84008313840A0008EC0084030008B9
:101E2000EB00690803178D00FA0003136A08031713
:101E30008F0003136B08F8006C08F9006E25E80AA0
:101E4000F92E25300C1E222F9900632FE208031D66
:101E50002D2F6108073C03185F2F62080C3C031C00
:101E60005F2FE8016808073C031C5A2F6208FA003C
:101E70006108E10A0319E20AE9007A08EA0003109E
:101E8000680DA03E84008313840A0008EC008403DC
:101E90000008EB00690803178D00FA0003136A08B5
:101EA00003178F0003136B08F8006C08F9006E2508
:101EB000E80A322F2A300C1E5B2F9900632F2E3038
:101EC0000C1E602F9900640018121816E82D0800E7
:101ED000AD01AC012C0F6F2F2D0F6F2F732FAC0A9C
:081EE0000319AD0A6A2F080086
:041EEC0084018313D7
:101EF0001F308305723083168F000F08333099002E
:101F0000A230980090308312980083161F129F12FF
:101F10001B0880399B0007309C008312A801A9018F
:101F20000B138B138B1B912F0930031785000F3078
:101F3000F700031381018130840083130008F03916
:101F40000738800064000008F739F719F039770482
:101F5000800083161F129F121B0880399B0083127A
:101F60001F1083160108C7390838810083129001B9
:101F70000030F800920000308316920007309C0079
:101F8000050885000630F700F70BC42F00001C0879
:101F900083120D1383169D0172308F000F08831278
:101FA000AB012B0FD42FF82F8C1EE62F8C1ED62FB3
:101FB0001A08753C031DE52F8C1EDC2F1A08663CA1
:101FC000031DE42F64009F25E62FF82F75300C1EAB
:101FD000E72F990066300C1EEB2F99003F300C1E46
:101FE000EF2F99006827181218166400AB0AD12F3A
:0E1FF0001812181664000D308A00820163007A
:04400E00143FFC3F20
:00000001FF
;PIC16F88
;CRC=7C3C  CREATED="08-1-11 12:50"
