:0C00000008308A00822800002028080038
:100040000A108A100A11273E03188A0A8200003417
:100050005E34BC34E23461343F34DD348334C23442
:100060009C347E342034A334FD341F3441349D3419
:10007000C33421347F34FC34A23440341E345F3422
:100080000134E334BD343E3460348234DC34233410
:100090007D349F34C13442341C34FE34A034E13406
:1000A000BF345D3403348034DE343C346234BE34D7
:1000B000E03402345C34DF34813463343D347C34E6
:1000C0002234C0349E341D344334A134FF344634CA
:1000D0001834FA34A434273479349B34C534843446
:1000E000DA3438346634E534BB3459340734DB341D
:1000F000853467343934BA34E43406345834193426
:100100004734A534FB3478342634C4349A34653407
:100110003B34D934873404345A34B834E634A73401
:10012000F9341B344534C63498347A342434F834E2
:10013000A63444341A349934C73425347B343A34E1
:1001400064348634D8345B340534E734B9348C34C1
:10015000D23430346E34ED34B33451340F344E3441
:100160001034F234AC342F3471349334CD34113430
:100170004F34AD34F33470342E34CC349234D33421
:100180008D346F343134B234EC340E345034AF34F7
:10019000F13413344D34CE34903472342C346D3405
:1001A0003334D1348F340C345234B034EE343234EE
:1001B0006C348E34D03453340D34EF34B134F034E5
:1001C000AE344C3412349134CF342D347334CA34B9
:1001D000943476342834AB34F53417344934083445
:1001E0005634B434EA3469343734D5348B34573424
:1001F0000934EB34B534363468348A34D434953425
:10020000CB3429347734F434AA3448341634E934FE
:10021000B73455340B348834D63434346A342B3400
:1002200075349734C9344A341434F634A8347434E9
:100230002A34C834963415344B34A934F734B634E0
:10024000E8340A345434D73489346B3435340D05EA
:100250000D0523104D39E135EF366539A0127310C5
:10026000A82129103218B01BA02A532A8A060000A0
:100270002310E337ED366137E4393A106816A031C0
:100280002C106F1620362C107816A0342C107216F5
:10029000A0302C107316A03A0D0500002310F63282
:1002A0007210F332F13A6537E332A034EE39693235
:1002B000E52DB11731183010C32EA039EB3CDB18F7
:1002C000AF183018A0215D10F335F92DB117311892
:1002D0003010C32E2000E136E2346537F42DB1171B
:1002E00031183010C32E2034E530F434EE33DB39CE
:1002F0005D10E437ED32DB395D106334E531EB0638
:100300008A060A00533084008313000803199529D4
:100310000230F800F701F70B8B29F80B8A29973088
:10032000F700F70B9129800B8829080083165308E2
:10033000D5005208D4005508FA00540884008313ED
:100340007A18831780080319A929D40A0319D50A32
:100350009B2952085402F7005508FA005308031C61
:10036000530FFA027708F800831208008316031768
:100370008C170C14000000000318ED2983120C08E0
:100380007F3983160313D300831203170D088316D6
:100390000313D400831203170F0883160313D50029
:1003A000530883120C1ED229990083165408831215
:1003B00003178D00831603135508831203178F004C
:1003C00083168C170C14000000000313D20BE929CC
:1003D000EB290317ED29182A031783120C0D0E0DB4
:1003E0007F3983160313D300831203170D08831676
:1003F0000313D400831203170F0883160313D500C9
:10040000530883120C1E022A990083165408831283
:1004100003178D00831603135508831203178F00EB
:100420008D0A03198F0A031083160313D20BB72901
:100430008312080080080319372A8316D3010408A1
:10044000D2005310831B5314000883120C1E262A5B
:100450009900831652088400831353188317840A63
:10046000031D352A8312850A831683121A2A08006F
:10047000831603178C170C140000000083120C085D
:100480007F390319922A83160313D20083120317AC
:100490000D0883160313D300831203170F08831666
:1004A0000313D400520883120C1E542A9900831699
:1004B0005308831203178D00831603135408831205
:1004C00003178F0083168C170C1400000000831292
:1004D0000C0D0E0D7F390319922A83160313D200D7
:1004E000831203170D0883160313D3008312031717
:1004F0000F0883160313D400520883120C1E7E2AA1
:10050000990083165308831203178D008316031373
:100510005408831203178F008D0A03198F0A0313DF
:10052000382A03170313080024308316A00049302B
:10053000A1006430A2003A30A3002030A40069304A
:10054000A5007230A6006D30A7007230A80061309F
:10055000A9006B30AA003430AB002E30AC00633001
:10056000AD002030AE003130AF003730B000303059
:10057000B1003630B2002030B3003230B400303039
:10058000B5003130B6003030B7002D30B800313012
:10059000B9003230BA002D30BB003030BC003530ED
:1005A000BD002030BE003130BF003930C0003A30CD
:1005B000C1003330C2003630C3003A30C40033309B
:1005C000C5003630C6005A30C7002030C8006B3036
:1005D000C9006130CA006B30CB006C30CC002030D9
:1005E000CD002430CE00CF01D301A030D200831241
:1005F000962101307802A03E840083130008243C39
:10060000031D0E2B8316D301A030D2008312962136
:1006100001307802A03E8400831380012730031745
:100620008D0001308F0003100F3083160313D200AA
:100630008312B6212230840083131A222F3003172D
:100640008D0001308F0003140F3083160313D20086
:100650008312B62123300C1E2B2B9900A43084006A
:1006600083131A220D300C1E332B99000A300C1EF6
:10067000372B9900383003178D0001308F0003139A
:1006800038224E3003178D0001308F0003133822BB
:100690006B3003178D0001308F0003133822640084
:1006A0000800831686140610831206100D30F7001A
:1006B000F70B582B83168610831286100D30F70027
:1006C000F70B602B831606140D30F700F70B662B23
:1006D000861483120800831686140D30F700F70B7A
:1006E0006F2B06140D30F700F70B742B8610831256
:1006F00086100D30F700F70B7B2B83160610831244
:1007000006100D30F700F70B832B0800E208031DDD
:100710008E2B8316861083128610912B83168614D7
:100720008312922B932B942B831606141A30F70006
:10073000F70B982B0000061083120610A708031968
:10074000A72B83160612103083128606AB2B831656
:100750000612831206164230F700F70BAD2B00008D
:10076000A7080319B92B83160612103083128606C8
:10077000BD2B8316061283120616080083168614F4
:1007800006141A30F700F70BC32B000086148312EF
:10079000861CCD2B0130E200CE2BE2018316061021
:1007A00083120610A7080319DB2B831606121030DC
:1007B00083128606DF2B831606128312061642303A
:1007C000F700F70BE12B0000A7080319ED2B8316A8
:1007D0000612103083128606F12B8316061283123E
:1007E00006166208F80008000830DF00DF08031969
:1007F000062CDE1FFE2B0130E100FF2BE10161081A
:10080000E20086230310DE0DDF03F62BBE237808FB
:10081000E0006008F80008000830DF00DF08031976
:100820001E2CBE23F8080319192C0310DE0D5E14CC
:100830001C2C0310DE0D5E10DF030E2C5D08E200A1
:1008400086235E08F80008000310D20D51236B23A5
:100850005208DE00F4235308DD00DE00F4236B238E
:100860005208DE00F423DD010C247808D600DD01F7
:100870000C247808D5005508DC005608DB00013050
:10088000DD000C247808DA0051235208D9005308FF
:10089000D8005208D700D401DE015430DD002F30DB
:1008A000E500E401E301E201E1010130E00007308D
:1008B000DF002F30E500E6010530E700E8016708BA
:1008C0005D07840083135E1883170008EA008030F8
:1008D000F7006808F8000319712C0310F70CF80BE7
:1008E0006D2C77086A05031D8F2CE70803198F2CE0
:1008F000E5036808063C031C7F2CE80A812CE8010C
:10090000E703A70803198A2C8316061210308312F6
:1009100086068E2C83160612831206165F2C08306C
:100920006502E600E6080319C72C0530E700670FEB
:100930009A2CB82C013067025F3E84008313801F1D
:10094000A72CE7080319A72C0130E900A82CE9011E
:100950005F306707840083130310000D80005F3051
:10096000670784008313690800078000E703972C5A
:10097000E603A7080319C22C83160612103083124F
:100980008606C62C8316061283120616922CE701E1
:100990006708053C031CEA2C67085D07F8005E0841
:1009A000FA000318FA0A7808840083137A18831768
:1009B0000008EC005F3067078400831300086C06B2
:1009C000EC007808840083137A1883176C08800081
:1009D000E70AC82C6508083C031C512C5D088400FC
:1009E00083135E1883170008F80078085A02031969
:1009F000FB2CDC01DB015B08F8005C08F900080057
:100A000083168613861383128613A70803190E2DE7
:100A100083160612103083128606122D83160612D4
:100A2000831206164230F700F70B142D0000A708BA
:100A30000319202D83160612103083128606242DEA
:100A400083160612831206164230F700F70B262D86
:100A50000000A7080319322D8316061210308312E6
:100A60008606362D83160612831206164230F700CC
:100A7000F70B382D0000A7080319442D8316061222
:100A8000103083128606482D83160612831206162E
:100A90004230F700F70B4A2D0000A7080319562D26
:100AA000831606121030831286065A2D83160612FC
:100AB000831206164230F700F70B5C2D0000A708E2
:100AC0000319682D831606121030831286066C2DCA
:100AD0008316061283120616831686170330F70054
:100AE000F70B702D8312861B782D0030F800D32D64
:100AF0002B30F700F70B7A2DA7080319852D8316E5
:100B00000612103083128606892D83160612831270
:100B100006165210861F5214A7080319952D831626
:100B20000612103083128606992D83160612831240
:100B300006164230F700F70B9B2D0000A70803199B
:100B4000A72D83160612103083128606AB2D83164E
:100B50000612831206164230F700F70BAD2D000087
:100B6000A7080319B92D83160612103083128606C2
:100B7000BD2D83160612831206161330F700F70BED
:100B8000BF2DC22DA7080319CB2D831606121030D6
:100B900083128606CF2D83160612831206160030A6
:100BA00052180130F80008000130D3005308083C07
:100BB000031C322E0310D20C003003180130D40075
:100BC0005408D500831686138613831286130630C5
:100BD000F700F70BE92D0000D5080319FF2D831648
:100BE00086138613831286170630F700F70BF62D4F
:100BF0000000861BFE2D0030F8002A2E0E2E8316D4
:100C000086138613831286130630F700F70B062E21
:100C10000000861F0E2E0030F8002A2E2130F7002B
:100C2000F70B102E83168613861383128617A708D8
:100C30000319202E83160612103083128606242EE6
:100C400083160612831206162130F700F70B262EA4
:100C50000130F800F808031D302E0030F800342E63
:100C6000D30AD62D0130F8000800D501D40155086B
:100C70005302031C572E031D412E52085402031821
:100C8000572EA70803194A2E831606121030831216
:100C900086064E2E83160612831206164230F70081
:100CA000F70B502E0000D40A0319D50A372E08007E
:100CB0000130D4005408083C031C902E8316861380
:100CC0008613831286130930F700F70B652E8316FF
:100CD00086170330F700F70B6B2E83125610861B16
:100CE00056144230F700F70B732E0000A7080319C3
:100CF0007F2E83160612103083128606832E8316EB
:100D0000061283120616003056180130F800F80853
:100D1000031D8C2E03108D2E0314D50CD40A5A2ECD
:100D20005508F8008A15D029530855068039D70090
:100D3000D31F9F2ED209D309D20A0319D30AD51F74
:100D4000A62ED409D509D40A0319D50A1030D60025
:100D5000F701FA01D30CD20C031CB42E5408F70788
:100D60000318FA0A5508FA07FA0CF70CF90CF80CF4
:100D7000D60BAA2ED71FC12EF809F909F80A0319B4
:100D8000F90A8A15152A550857068039D900D51F42
:100D9000CE2ED409D509D40A0319D50AD71FD52ECA
:100DA000D609D709D60A0319D70AF801F901F701BC
:100DB000FA015708031DDF2E56080319F92E1030CB
:100DC000D8000310D40DD50DF70DFA0D57087A028F
:100DD000031DEC2E56087702031CF52E5608F70269
:100DE000031CFA035708FA020314F80DF90DD80B87
:100DF000E12ED91F002FF809F909F80A0319F90A99
:100E00000800280884008313291883175B088000D2
:100E1000840A8001A80A0319A90A08008008031996
:100E2000232FD3010408D2005310831B531400084E
:100E3000DB00012752088400831353188317840AA8
:100E40000319850A0E2F8A15C82ADA010408D90069
:100E50005A10831B5A14530EF038D500D507E23EC2
:100E6000D600323ED80053080F39D607D607D80728
:100E7000E93ED700D707D707520E0F39D707D80753
:100E8000D70DD80DD809D80D52080F39D807D50D70
:100E90000730D4000A30D807D703031C4B2FD707DD
:100EA000D603031C4F2FD607D503031C532FD5079A
:100EB000D403031C572F5430840083130730590583
:100EC0005913840758300402031959170008F70012
:100ED000031D722F591B722F591A842FD919722F83
:100EE0002030752FD91559123030F707D301040877
:100EF000D2005310831B53147708DB0001275208DC
:100F00008400831353188317840A591F622F8A158C
:100F1000F92A5508F80154020318912F5408F700D4
:100F20009D2FF7010830D600D40DF70D5508770234
:100F30000318F700F80DD60B942F08007808520814
:100F4000D4006430D50089277708D2007808303083
:100F5000031DB12FD31CB82FD319B82F531A20302B
:100F6000B42FD31153125314F8077808DB0001276C
:100F70005208D4000A30D50089277708D2007808B3
:100F80003030031DC92FD319CD2F531CCD2F531A29
:100F90002030F8077808DB0001273030D2075208EC
:100FA000DB0001270800D31BE52F0F30F700520E9E
:100FB000F7050A3077020318E02F3030F707E22FE9
:100FC0005308F7077708DB0001270F30D2050A30F6
:100FD00052020318ED2F3030EF2FD3135308D207EE
:0A0FE0005208DB0001278A15472C98
:10100000DA010408D9005A10831B5A14D31F102880
:10101000D917591ED90AD209D309D20A0319D30AFA
:10102000530EF038D500D507E23ED600323ED80048
:1010300053080F39D607D607D807E93ED700D70798
:10104000D707520E0F39D707D807D70DD80DD809B3
:10105000D80D52080F39D807D50D0730D4000A3003
:10106000D807D703031C3028D707D603031C34281E
:10107000D607D503031C3828D507D403031C3C2806
:1010800054308400831307305905591384035905DC
:10109000031D5128591A840A591A51282030F70083
:1010A0006E28840758300402031959170008F70006
:1010B000031D6228591B6228591A7E28D9196228F3
:1010C00020306D28D91F6A282D30F700840359136A
:1010D000D9136E28D91559123030F707D3010408F7
:1010E000D2005310831B53147708DB008A110127A9
:1010F0008A1552088400831353188317840A591FD2
:1011000052280800840183131F3083057230831630
:101110008F000F0833309900A2309800903083126E
:10112000980083161F129F121B0880399B000730FE
:101130009C008312A001A1013430A2002E30A30034
:101140003130A400A501A801A9018316061283125B
:10115000061683168611831286110430D200FA30E7
:10116000D3008A1182218A15D20BAF286400AB010B
:10117000AA01A601A7013B14BB108A1194228A156B
:10118000D2010630D3008A1124248A157908AF00D1
:101190007808AE00D2010730D3008A1124248A15C2
:1011A0007908AD007808AC008A1100258A15CC308A
:1011B000D2008A11D4258A154430D2008A11D42550
:1011C0008A150430D200FA30D3008A1182218A15A0
:1011D000D20BE32864005A30BA003A08593C03188D
:1011E000BA0AD3016430D2008A1135268A153A082A
:1011F000593C03180F29A608031DA603A708031DC1
:10120000A703A608031909298316861183128615D8
:101210000D298316861183128611BA0164008C1A77
:1012200013293B1CED2864006B30BC008C1E1C296C
:101230008C1E18291A08BC0061303C02E83E0318D5
:101240004829183E752C1430A600BB104829A60169
:10125000BB1048291430A700BB1048291430A70040
:10126000A600BB104829A701BB104829A708031DE9
:101270003C298A1194228A1548293B14BB1048291D
:101280003B10BB1048293B14BB1448298A01002895
:1012900018121816AA0A0319AB0AD2010630D30095
:1012A0008A1124248A157908AF007808AE0003104B
:1012B0002E0DD2002F0DD300B3305202F700530889
:1012C000FA006A30031C6B30FA027708B0007A0823
:1012D000B100D2010730D3008A1124248A1579087D
:1012E000AD007808AC0003102C0DD2002D0DD300FA
:1012F000B3305202F7005308FA006A30031C6B3017
:10130000FA027708B2007A08B300D2010830D3009D
:101310008A1124248A157908AD007808AC000310DE
:101320002C0DD2002D0DD300B3305202F70053081C
:10133000FA006A30031C6B30FA027708B4007A08AE
:10134000B5008A1100258A15CC30D2008A11D42527
:101350008A154430D2008A11D4258A1564001730CA
:10136000D3007030D2008A1135268A158A110025E3
:101370008A15CC30D2008A11D4258A15BE30D2000D
:101380008A11D4258A15C7014708083C031CDA29AD
:101390003D304707D200D3010318D30A8A11582ED3
:1013A0008A15520884008313531883177808800025
:1013B000C70AC4293D08B8003E08B900D3013D3032
:1013C000D2000830D400D501D601540856020318C3
:1013D000FE2956085207F8005308FA000318FA0AC3
:1013E0007808840083137A188317000855068A1139
:1013F00020208A15F800D500D60AE5295508F800FE
:1014000078084502031D2E2A4408103C031D2E2A8D
:101410003908B7003808B6003708D3003608D200BC
:10142000D5010630D4008A11942E8A157908D3008C
:101430007808D2003708D5003608D400D701043028
:10144000D6008A11C3268A1578085207B6005308B9
:10145000B70079080318790FB707322A9530B7001B
:101460004D30B600BB1CAA2AB11B402A3108073CEC
:10147000031C422A031D402A3008073C031C422A51
:101480001430A60034083202D2003308D3003508E5
:10149000031C350FD3025308FA005208D31F592AF0
:1014A0005208003CF700FA015308031C530FFA02DC
:1014B0007708D2007A08D300D31B652AD308031D0E
:1014C000AA2A5208C73C031CAA2AB31F6A2AB71FBC
:1014D000762A6C2AB71BAA2A33083702031CAA2AC9
:1014E000031D762A360832020318AA2A3708D500C7
:1014F0003608D400D7010430D6008A11C3268A15D5
:101500007908D3007808D2003208D2023308031CCD
:10151000330FD3025308FA005208D31F982A5208F7
:10152000003CF700FA015308031C530FFA02770836
:10153000D2007A08D300D31BAA2A5308003C031810
:10154000AA2AFF3A031DA82A5208F43C0318AA2A23
:101550001430A700D101D3013230D2008A113526D0
:101560008A1524300C1EB22A9900D3013230D200E1
:101570008A1135268A15A9014830A8004D30DB00B4
:101580008A1101278A152230840083138A110E2FB5
:101590008A152030DB008A1101278A15D0014830D6
:1015A00050078400831380080319EE2AD3013230D8
:1015B000D2008A1135268A154830500784008313DB
:1015C0000008D20052080C1EE32A99005008D00AE5
:1015D000483E840083130008D106CF2AA901483071
:1015E000A800103084002B08D3002A08D2008A11EA
:1015F000252F8A152030DB008A1101278A15D0019A
:101600004830500784008313800803191F2BD3012F
:101610003230D2008A1135268A15483050078400AE
:1016200083130008D20052080C1E142B9900500896
:10163000D00A483E840083130008D106002BA9017C
:101640004830A800103084003108D3003008D200A0
:1016500000202030DB008A1101278A15D001483094
:10166000500784008313800803194E2BD3013230B6
:10167000D2008A1135268A1548305007840083131A
:101680000008D20052080C1E432B99005008D00AC3
:10169000483E840083130008D1062F2BA90148304F
:1016A000A800103084003308D3003208D200002094
:1016B0002030DB008A1101278A15D00148305007FD
:1016C00084008313800803197D2BD3013230D200AC
:1016D0008A1135268A154830500784008313000884
:1016E000D20052080C1E722B99005008D00A483EB6
:1016F000840083130008D1065E2BA9014830A8009E
:10170000103084003508D3003408D2000020203087
:10171000DB008A1101278A15D00148305007840068
:10172000831380080319AC2BD3013230D2008A1105
:1017300035268A1548305007840083130008D200EC
:1017400052080C1EA12B99005008D00A483E840074
:1017500083130008D1068D2BA9014830A800103052
:1017600084003708D3003608D20000202030DB0088
:101770008A1101278A15D00148305007840083134D
:1017800080080319DB2BD3013230D2008A113526B1
:101790008A1548305007840083130008D20052088D
:1017A0000C1ED02B99005008D00A483E84008313A9
:1017B0000008D106BC2BA9014830A8002608D20099
:1017C0001B30D3008A119E278A152030DB008A1136
:1017D00001278A15D0014830500784008313800800
:1017E00003190A2CD3013230D2008A1135268A150A
:1017F00048305007840083130008D20052080C1EA2
:10180000FF2B99005008D00A483E8400831300083B
:10181000D106EB2BA9014830A8002708D2001B30C5
:10182000D3008A119E278A152030DB008A110127F8
:101830008A15D001483050078400831380080319AB
:10184000392CD3013230D2008A1135268A1548301E
:101850005007840083130008D20052080C1E2E2C5F
:1018600099005008D00A483E840083130008D1062E
:101870001A2CA9014830A8002A30DB008A11012760
:101880008A155108D2003730D3008A11D32F8A1518
:101890000D30DB008A1101278A150A30DB008A111E
:1018A00001278A15D001483050078400831380082F
:1018B00003196C2CD3013230D2008A1135268A15D7
:1018C0005008D00A483E840083130008D200520812
:1018D0000C1E682C9900532CD3013230D2008A118F
:1018E00035268A156400EB2863000A108A100A1551
:1018F000820743294829272948294829482948296E
:1019000023293629482948293329482948292A29B9
:10191000482948293D294029482946294829482954
:021920002E296E
:061980008A0100280800A6
:04400E00143FFC3F20
:00000001FF
;PIC16F88
;CRC=A25B  CREATED="07-12-10 08:17"
