:0C00000008308A000028000020280800BA
:100040008A068A0623104D39E135EF366539A0124C
:100050007310A82129103218B01BA025C1254C050A
:100060000D00231068102D10D33B693A6334A0278C
:100070006E10C832613A69376710E637721032186D
:1000800073178A060000231063102D10CE326532DC
:10009000A0216F36E4327217A029F734F4316810CA
:1000A0004F336610C832613A693767178A06000114
:1000B00023106F102D104F386537203AE832202278
:1000C000EF366510E6377210321873178A06000192
:1000D00023106C102D10CC37E335203AE832202263
:1000E000EF3665178A060001231078102D104F385F
:1000F0006537203AE8322022EF3665106137641008
:10010000F33B693A6334A0276E10C832613A69370D
:1001100067178A060001231069102D1050396937BE
:1001200074107434E939A0246E336F39ED30F4342F
:100130006F372E050D00231072102D10D232F032C1
:10014000613AA036E530F33AF232A032F632F23CB0
:10015000A039E5316F3764178A0600012310731048
:100160002D10D334EE33EC32A036E530F33AF232D0
:100170002E050D00231075102D105538E430F43283
:1001800020336939ED3B61396517A0236F10F437CF
:10019000203AE8322021EF377410CC3761326539CC
:1001A0002E050D002310BC39E538F532EE31651F00
:1001B000201EE136E2346537F42DB11731183010C6
:1001C000C32E3E10BC306D31E9326E3ADB18AF18E9
:1001D0003018A0215D1F201EF335F92DB1173118FD
:1001E0003010C32E3E1000013C34E530F434EE33C1
:1001F000DB395D1F201EE437ED32DB395D1F201E29
:100200006334E5316B1F8A068A060000443084009F
:1002100083130008031919290230F800F701F70BBE
:100220000F29F80B0E299730F700F70B1529800BD3
:100230000C2908007608FC007508FB007C08FA0011
:100240007B08840083137A188317800803192C29EC
:10025000FB0A0319FC0A1E2975087B02F7007C08BB
:10026000FA007608031C760FFA027708F8000800F7
:10027000831603178C170C140000000003185A296A
:1002800083120C087F39FB000D08FC000F08FD00ED
:100290007B0803130C1E4A2999007C0803178D0064
:1002A0007D088F0083168C170C1400000000F50BDE
:1002B0005A29772983120C0D0E0D7F39FB000D088A
:1002C000FC000F08FD007B0803130C1E6529990034
:1002D0007C0803178D007D088F008D0A03198F0A93
:1002E0000310F50B7429762903133829831683121A
:1002F00003130800800803199029F6010408F5008B
:100300007610831B761400080C1E8429990075084A
:100310008400831376188317840A0319850A7A29BF
:100320000800831603178C170C14000000008312BA
:100330000C087F390319CB29FB000D08FC000F08BE
:10034000FD007B0803130C1EA32999007C080317EA
:100350008D007D088F0083168C170C1400000000A0
:1003600083120C0D0E0D7F390319CB29FB000D08EC
:10037000FC000F08FD007B0803130C1EBD2999002B
:100380007C0803178D007D088F008D0A03198F0AE2
:10039000031391290317031308002430C3004930C5
:1003A000C4006430C5003A30C6002030C700693050
:1003B000C8007230C9006D30CA007230CB006130A5
:1003C000CC006B30CD003430CE002E30CF00633007
:1003D000D0002030D1003130D2003530D300393058
:1003E000D4003730D5002030D6003230D70030303E
:1003F000D8003130D9003030DA002D30DB00303019
:10040000DC003830DD002D30DE003230DF003530EA
:10041000E0002030E1003130E2003930E3003A30D2
:10042000E4003430E5003730E6003A30E70035309C
:10043000E8003830E9005A30EA002030EB006B3039
:10044000EC006130ED006B30EE006C30EF002030DE
:10045000F0002430F100F201F6014330F5001A21DA
:1004600001307802433E840083130008243C031DBE
:10047000432AF6014330F5001A2101307802433E49
:10048000840083138001203003178D0000308F001B
:1004900003100F30F500031338212230840083133A
:1004A0007A21283003178D0000308F00031410309C
:1004B000F5000313382123300C1E5C2A99004730C5
:1004C000840083137A210A300C1E642A99000D30AF
:1004D0000C1E682A990023300C1E6C2A99000A30E1
:1004E0000C1E702A99000D300C1E742A99003130B0
:1004F00003178D0000308F00031391214330031741
:100500008D0000308F0003139121583003178D00A8
:1005100000308F0003139121683003178D000030E5
:100520008F0003139121743003178D0000308F006A
:10053000031391218B3003178D0000308F000313BC
:1005400091219B3003178D0000308F000313912100
:10055000AE3003178D0000308F0003139121BA30A5
:1005600003178D0000308F000313912123300C1EE0
:10057000B72A99000A300C1EBB2A99000D300C1EB8
:10058000BF2A9900D23003178D0000308F0003136B
:100590009121F43003178D0000308F000313912157
:1005A00064000800831686140610831206100D30AE
:1005B000F700F70BD92A83168610831286100D30A8
:1005C000F700F70BE12A831606140D30F700F70B3E
:1005D000E72A861483120800831686140D30F7006C
:1005E000F70BF02A06140D30F700F70BF52A8610EA
:1005F000831286100D30F700F70BFC2A83160610C5
:10060000831206100D30F700F70B042B0800D308F7
:10061000031D0F2B8316861083128610122B831650
:1006200086148312132B142B152B831606141A30E1
:10063000F700F70B192B0000061083120610A7080D
:100640000319282B831606121030831286062C2BD2
:1006500083160612831206164230F700F70B2E2B74
:100660000000A70803193A2B8316061210308312D4
:1006700086063E2B83160612831206160800831682
:10068000861406141A30F700F70B442B000086146A
:100690008312861C4E2B0130D3004F2BD3018316BF
:1006A000061083120610A70803195C2B8316061286
:1006B000103083128606602B8316061283120616EC
:1006C0004230F700F70B622B0000A70803196E2BCE
:1006D00083160612103083128606722B83160612BA
:1006E000831206165308F80008000830D000D0081E
:1006F0000319872BCF1F7F2B0130D200802BD20113
:100700005208D30007230310CF0DD003772B3F23CC
:100710007808D1005108F80008000830D000D0084F
:1007200003199F2B3F23F80803199A2B0310CF0DB1
:100730004F149D2B0310CF0D4F10D0038F2B4E085D
:10074000D30007234F08F80008000310C30DD2227E
:10075000EC224308CF0075234408CE00CF00752358
:10076000EC224308CF007523CE018D237808C70003
:10077000CE018D237808C6004608CD004708CC007E
:100780000130CE008D237808CB00D2224308CA0066
:100790004408C9004308C800C501CF014530CE0058
:1007A0002F30D600D501D401D301D2010130D100C0
:1007B0000730D0002F30D600D7010530D800D9013E
:1007C00058084E07840083134F1883170008DB0076
:1007D0008030F7005908F8000319F22B0310F70CCA
:1007E000F80BEE2B77085B05031D102CD8080319B6
:1007F000102CD6035908063C031C002CD90A022CE5
:10080000D901D803A70803190B2C83160612103040
:10081000831286060F2C8316061283120616E02B0F
:1008200008305602D700D7080319482C0530D800E5
:10083000580F1B2C392C01305802503E8400831372
:10084000801F282CD8080319282C0130DA00292C05
:10085000DA0150305807840083130310000D800024
:1008600050305807840083135A0800078000D803CB
:10087000182CD703A7080319432C8316061210302F
:1008800083128606472C8316061283120616132C33
:10089000D8015808053C031C6B2C58084E07F8007B
:1008A0004F08FA000318FA0A7808840083137A18AC
:1008B00083170008DD0050305807840083130008B8
:1008C0005D06DD007808840083137A1883175D08BD
:1008D0008000D80A492C5608083C031CD22B4E082D
:1008E000840083134F1883170008F80078084B0220
:1008F00003197C2CCD01CC014C08F8004D08F900FF
:100900000800C601C50146084402031CA32C031DB0
:100910008D2C430845020318A32CA7080319962C15
:10092000831606121030831286069A2C831606123E
:10093000831206164230F700F70B9C2C0000C50A04
:100940000319C60A832C0800280884008313291879
:1009500083174C088000840A8001A80A0319A90A99
:10096000080080080319C62CC4010408C300441001
:10097000831B44140008CC00A42443088400831380
:1009800044188317840A0319850AB12C8A1525296E
:10099000CB010408CA004B10831B4B14440EF038E3
:1009A000C600C607E23EC700323EC90044080F3900
:1009B000C707C707C907E93EC800C807C807430EED
:1009C0000F39C807C907C80DC90DC909C90D4308A2
:1009D0000F39C907C60D0730C5000A30C907C8035B
:1009E000031CEE2CC807C703031CF22CC707C60361
:1009F000031CF62CC607C503031CFA2C45308400E3
:100A0000831307304A054A13840749300402031947
:100A10004A170008F700031D152D4A1B152D4A1A09
:100A2000272DCA19152D2030182DCA154A1230301D
:100A3000F707C4010408C3004410831B441477085B
:100A4000CC00A42443088400831344188317840A29
:100A50004A1F052D8A155629CB010408CA004B10E0
:100A6000831B4B14C41F3C2DCA174A1ECA0AC30954
:100A7000C409C30A0319C40A440EF038C600C607E5
:100A8000E23EC700323EC90044080F39C707C70716
:100A9000C907E93EC800C807C807430E0F39C80791
:100AA000C907C80DC90DC909C90D43080F39C907C0
:100AB000C60D0730C5000A30C907C803031C5C2DEA
:100AC000C807C703031C602DC707C603031C642D9A
:100AD000C607C503031C682D453084008313073007
:100AE0004A054A1384034A05031D7D2D4A1A840AC8
:100AF0004A1A7D2D2030F7009A2D840749300402D0
:100B000003194A170008F700031D8E2D4A1B8E2D6E
:100B10004A1AA82DCA198E2D2030992DCA1F962D3C
:100B20002D30F70084034A13CA139A2DCA154A12AE
:100B30003030F707C4010408C3004410831B441479
:100B40007708CC00A4244308840083134418831737
:100B5000840A4A1F7E2D08004608F8014502031842
:100B6000B42D4508F700C02DF7010830C700C50DAA
:100B7000F70D460877020318F700F80DC70BB72DDD
:100B8000080078084308C5006430C600AC25770823
:100B9000C30078083030031DD42DC41CDB2DC419CC
:100BA000DB2D441A2030D72DC41144124414F80709
:100BB0007808CC00A4244308C5000A30C600AC2540
:100BC0007708C30078083030031DEC2DC419F02DD0
:100BD000441CF02D441A2030F8077808CC00A424D7
:100BE0003030C3074308CC00A4240800C41B082EDF
:100BF0000F30F700430EF7050A3077020318032E73
:100C00003030F707052E4408F7077708CC00A424F6
:100C10000F30C3050A3043020318102E3030122E55
:100C2000C4134408C3074308CC00A4248A157B2AB4
:10100000840183131F308305723083168F000F080D
:1010100033309900A23098009030831298008316E4
:101020001F129F121B0880399B0007309C008312FF
:10103000A001A1013430A2002E30A3003130A40061
:10104000A501A801A90183160612831206168316AC
:101050008611831286110430C300FA30C4008A114D
:1010600006218A15C30B2D286400AB01AA01A60135
:10107000A70137148A11CD218A15C3010630C40097
:101080008A11A5238A157908AF007808AE00C3013C
:101090000730C4008A11A5238A157908AD007808A5
:1010A000AC000430C300FA30C4008A1106218A154E
:1010B000C30B532864005A30B6003608593C031855
:1010C000B60AC4016430C3008A1181248A15360827
:1010D000593C03187F28A608031DA603A708031D73
:1010E000A703A6080319792883168611831286158B
:1010F0007D288316861183128611B60164008C1A2E
:101100008328371C5D2864006B30B8008C1E8C2847
:101110008C1E88281A08B80063303802EA3E03188B
:10112000AE28163EB12A1430A600AE28A601AE287D
:101130001430A700AE281430A700A600AE28A701DF
:10114000AE28A708031DA7288A11CD218A15AE282D
:101150003714AE283710AE288A0100281812181646
:10116000AA0A0319AB0AC3010630C4008A11A523D9
:101170008A157908AF007808AE0003102E0DC30061
:101180002F0DC400B3304302F7004408FA006A3060
:10119000031C6B30FA027708B0007A08B100C30173
:1011A0000730C4008A11A5238A157908AD00780894
:1011B000AC0003102C0DC3002D0DC400B33043024E
:1011C000F7004408FA006A30031C6B30FA02770813
:1011D000B2007A08B300C3010830C4008A11A52305
:1011E0008A157908AD007808AC0003102C0DC300F7
:1011F0002D0DC400B3304302F7004408FA006A30F2
:10120000031C6B30FA027708B4007A08B500C201FB
:10121000C4013230C3008A1181248A1524300C1E87
:101220000F299900C4013230C3008A1181248A1524
:10123000A9013930A8004D30CC008A11A4248A15A8
:101240002230840083138A11B12C8A152030CC00FF
:101250008A11A4248A15C1013930410784008313FF
:10126000800803194B29C4013230C3008A1181243C
:101270008A1539304107840083130008C3004308EE
:101280000C1E402999004108C10A393E840083138D
:101290000008C2062C29A9013930A80010308400AA
:1012A0002B08C4002A08C3008A11C82C8A152030D4
:1012B000CC008A11A4248A15C10139304107840069
:1012C0008313800803197C29C4013230C3008A11BA
:1012D00081248A1539304107840083130008C30034
:1012E00043080C1E712999004108C10A393E840047
:1012F00083130008C2065D29A9013930A800103007
:1013000084003108C4003008C3008A112C258A15D6
:101310002030CC008A11A4248A15C101393041073C
:101320008400831380080319AD29C4013230C3003F
:101330008A1181248A1539304107840083130008FB
:10134000C30043080C1EA22999004108C10A393E76
:10135000840083130008C2068E29A9013930A80031
:10136000103084003308C4003208C3008A112C25D1
:101370008A152030CC008A11A4248A15C101393085
:1013800041078400831380080319DE29C401323029
:10139000C3008A1181248A153930410784008313E0
:1013A0000008C30043080C1ED32999004108C10A54
:1013B000393E840083130008C206BF29A9013930D1
:1013C000A800103084003508C4003408C3008A1116
:1013D0002C258A152030CC008A11A4248A15C1013D
:1013E0003930410784008313800803190F2AC40190
:1013F0003230C3008A1181248A15393041078400B4
:1014000083130008C30043080C1E042A99004108F6
:10141000C10A393E840083130008C206F029A901DD
:101420003930A8002608C3001B30C4008A11C1252A
:101430008A152030CC008A11A4248A15C1013930C4
:10144000410784008313800803193E2AC401323007
:10145000C3008A1181248A1539304107840083131F
:101460000008C30043080C1E332A99004108C10A32
:10147000393E840083130008C2061F2AA9013930AF
:10148000A8002708C3001B30C4008A11C1258A1593
:101490002030CC008A11A4248A15C10139304107BB
:1014A00084008313800803196D2AC4013230C300FD
:1014B0008A1181248A15393041078400831300087A
:1014C000C30043080C1E622A99004108C10A393E34
:1014D000840083130008C2064E2AA9013930A800EF
:1014E0002A30CC008A11A4248A154208C300373060
:1014F000C4008A11F62D8A150A30CC008A11A42462
:101500008A150D30CC008A11A4248A15C101393006
:1015100041078400831380080319A02AC4013230D4
:10152000C3008A1181248A154108C10A393E84000A
:1015300083130008C30043080C1E9C2A9900872AC5
:10154000C4013230C3008A1181248A156400173027
:10155000C4007030C3008A1181248A1564005B289E
:1015600063000A108A140A1182079628AE28AE2852
:10157000AE28AE289328A128AE28AE289F28AE28F2
:10158000AE289828AE28AE28A828AA28AE28AC28CD
:06159000AE28AE289B28E6
:061980008A0100280800A6
:04400E00143FFC3F20
:00000001FF
;PIC16F88
;CRC=1109  CREATED="25-VIII-10 21:48"
